:020000040800F2
:1000000000090020A10100087F340008DD3000084D
:100010007D34000801180008613A00080000000063
:10002000000000000000000000000000A1350008F2
:10003000031800080000000061350008A33500081F
:10004000BB010008BB010008BB010008BB010008A0
:10005000BB010008BB010008BB010008BB01000890
:10006000BB0100080D180008BB010008BB01000817
:10007000BB010008BB010008BB010008BB01000870
:10008000BB010008BB010008D1120008BB01000839
:10009000BB010008BB010008BB010008BB01000850
:1000A000BB010008BB010008BB010008BB01000840
:1000B000BB010008BB010008BB010008BB01000830
:1000C000BB010008BB010008BB010008BB01000820
:1000D000BB010008BB010008BB010008BB01000810
:1000E00005180008BB010008BB01000800F002F879
:1000F00000F047F80AA090E8000C82448344AAF17B
:100100000107DA4501D100F03CF8AFF2090EBAE878
:100110000F0013F0010F18BFFB1A43F0010318473B
:1001200088430000A8430000103A24BF78C878C173
:10013000FAD8520724BF30C830C144BF04680C60ED
:10014000704700000023002400250026103A28BF35
:1001500078C1FBD8520728BF30C148BF0B60704739
:10016000662904F0D080002070471FB500F072FBB4
:1001700004000020002103F0F1FCE0601FBD10B579
:1001800010BD00F067FC1146FFF7EFFF03F0A2FC83
:1001900000F085FC03B4FFF7F2FF03BC00F0C8FCDD
:1001A0000948804709480047FEE7FEE7FEE7FEE70B
:1001B000FEE7FEE7FEE7FEE7FEE7FEE70448054947
:1001C000054A064B704700001F360008ED00000886
:1001D0000003002000090020000500200005002089
:1001E0000FB41CB5074B06AA7B44694600900598DE
:1001F00000F017FB0020694600F026FB1CBC5DF8F0
:1002000014FB00005D0600002DE9F0474FF0000AE6
:1002100089460446C0F820A02046E16888470028A7
:1002200076D0252806D0D4E901219047206A401CC9
:100230002062F1E7E168204600268847C4F81CA048
:1002400005460027C4F818A02A2D09D0284603F037
:100250002CFC38B304EB8708303DC8F8185019E07F
:1002600059F8041B204604EB87029161E168884736
:10027000012F054618D1E069002820DA26F0200673
:100280001DE0D8F8180000EB800005EB4000303886
:10029000C8F818002046E1688847054603F005FCC9
:1002A0000028EED1012F0AD02E2D08D12046E1687A
:1002B00088477F1C0546022F46F02006C4DBA06954
:1002C000002803DA404246F00106A061F00701D0A1
:1002D00026F010066C2D0AD0682D08D04C2D39D090
:1002E0006A2D35D0742D35D07A2D33D016E0E168E3
:1002F0002F4620468847B84205460AD16C2F27D0A2
:100300004FF48060E168064320468847054605E0D3
:1003100027E06C2F1AD04FF4807006430DB3A5F17F
:100320004100192802D8203546F400664A4629467D
:10033000204626604E46FFF713FF80B101280BD000
:10034000F61D26F0070000F1080965E74020E4E704
:100350008020D7E70020D5E706F104095CE72846AE
:1003600061E7206ABDE8F08710B5431C02E010F891
:10037000011B71B18107FAD14FF0013202C88C1A0A
:100380008C4314EAC211F9D0C01A0A0603D0C01E69
:1003900010BDC01A10BD0A0401D0801E10BD090294
:1003A000FCD0401E10BD4FF0000200B5134694462D
:1003B0009646203922BFA0E80C50A0E80C50B1F1BD
:1003C0002001BFF4F7AF090728BFA0E80C5048BFD1
:1003D0000CC05DF804EB890028BF40F8042B08BF6F
:1003E000704748BF20F8022B11F0804F18BF00F86B
:1003F000012B704770477047704770472DE9FF4FDA
:100400000C461E464FF0FF378BB0D2E90001DDF8F5
:1004100060800A908A46C1F30A5505B93D4600211D
:1004200008464FF00000BAF1000F00F4400005DA72
:1004300000EB80004FF4400101EA50004FEA905970
:10044000B9F1010F00DDB9460A9850EA4A000ED012
:1004500044F61050A5F2FF3545432F14B8F1000FB4
:100460001ED07542291E1EDDC9F100021CE0B8F144
:10047000010F4FF0000001D0302103E0F24305E00E
:100480002154401CB042FBDB3046002200212154A5
:100490000B99C1F80880C1E900200FB0BDE8F08FCA
:1004A000BD1B6D1CDEE74A4600DA694206A800F073
:1004B0005BFA06AB93E8070003AB83E807005046FE
:1004C0000A9900F03CFB8DE80700A0F500501F38AA
:1004D00000900398002D0ADD42F21F014A460844AD
:1004E000002303A90390684600F0A5FD09E0A0F5EC
:1004F00000504A461F38002303A90390684600F0C5
:10050000AFFD8DE807000004000C03D04FF0FF3072
:10051000410800E01046B8F1000F03D0002200921D
:1005200015461EE0751E05D400F098F9303262556C
:100530006D1EF9D5B3460122084302D000227F1C6C
:1005400004E02078302801D100227F1E002A09977C
:1005500084D01DE0112D07DA00F080F930326255A9
:100560006D1C50EA0102F5D1084302D00098C8B1D1
:100570000EE00021681E05E0235C625C6354225497
:10058000401E491C8142F7DBAB46A81B401E099068
:10059000002004F80B000B98099AC0F80880C0E905
:1005A000002B7AE711264FF0000857E72DE9F04FAE
:1005B00088460446D21D22F0070191B0D1E900011E
:1005C000CDE90A0103F04DFA02460B98C00F01D0A5
:1005D0002D2007E02068810701D52B2002E0202193
:1005E00001EAC000032A099001D0072A05DB03466F
:1005F0004146204600F078F90BE12078800601D5CD
:10060000E06900E00620B8F1650F814606D0B8F138
:10061000660F18D0B8F1670F70D131E00020B9F142
:10062000110F009001DB112301E009F101030AAA77
:1006300001A90CA8FFF7E2FEDDE90C70002609F124
:100640000105834647E001204B4600904FF00047EC
:100650000AAA01A90CA8FFF7D1FEDDE90DB00C999B
:100660005D46002610B909F101000D18B9EB05002F
:1006700003D4C0F1FF3609F10105A5EB09002BE019
:10068000B9F1010F01DA4FF001090020B9F1110FA2
:100690000090484601DD112300E003460AAA01A9A3
:1006A0000CA8FFF7ABFEDDE90C704D460026834633
:1006B000207800070AD4AB4500DA5D4601A8012D79
:1006C00004DD411911F8011C302907D04F4502DA29
:1006D00017F1040F04DA012082460FE06D1EEEE7E9
:1006E000002F02DCED1B3E4403E0781CA84200DD35
:1006F0007D1CB81B00F1010A4FF00047207800076D
:1007000003D4AA4501DB4FF0FF3A0021B7F1004FB7
:100710000DF143088DF8431024D002202B23002F25
:1007200001DA7F422D230A21021EA0F1010000DC24
:100730005FB197FBF1FC97FBF1F201FB1C7C1746C4
:100740000CF1300C08F801CDEEE7A8F101000370C0
:100750002188090501D5452100E06521A0F10108A6
:1007600000F8011C09980FA9A1EB0807FF1D00B1B3
:100770000120411901EBEA70A1693844081A401EB2
:10078000A0612078C00602D42046AFF3008009980B
:1007900028B1D4E901219047206A401C20622078CA
:1007A000C00622D52046AFF300801EE0002E04DBF9
:1007B000B34502DD01A8805D00E03020D4E90121CD
:1007C0009047206A401C2062761CAAF101005FEA73
:1007D000000A0AD100F03EF8C0680168405CD4E924
:1007E00001219047206A401C2062281EA5F10105C6
:1007F000DCDC07E0D4E9012118F8010B9047206AFE
:10080000401C2062381EA7F10107F3DC2046AFF33D
:100810000080032011B041E601694A1C026108789A
:10082000704700B58FB0CDE9013100210591054930
:100830007944CDE9031011466846FFF7E5FC0FB097
:1008400000BD0000E5FFFFFF0A6802F8010B0A6027
:100850007047000000487047C002002030B5B0F17A
:100860000A024FEA900E71F100034EEA817EB0EB6E
:100870000E0061EB91014FEA101E4EEA017E10EB73
:100880000E0041EB11114FEA102E4EEA016E10EBF3
:100890000E0041EB11214FEA104E4EEA014E10EBD3
:1008A0000E0041EB1141401841F100014FEAD00028
:1008B00040EA41704FEAD10110EB80054FEA810414
:1008C00044EA907444EB01046D1944EB0404521B98
:1008D000A3414FF0000348BF0A3200D530BD401C91
:1008E00041F1000130BD00002DE9F0411F460446F2
:1008F00003260168072A01F4006004DB08B116A58D
:1009000005E016A503E008B115A500E015A521F046
:1009100010002060A069C01EA0610FB1401EA06140
:100920002046AFF300804FB1D4E90121384690470B
:10093000206A401C2062C01C206206E0206AFAE7A0
:10094000D4E9012115F8010B9047761EF8D2204614
:10095000AFF30080BDE8F0814E414E006E616E0045
:10096000494E4600696E66002DE9F04781461646FD
:100970008AB0354878440DC88DE80D003248784477
:10098000801C03AC0DC884E80D0041F69B30084480
:10099000372190FBF1F290FBF1F5A5F1800501FB09
:1009A00012041B3C02D56442012000E00020DFF865
:1009B00098A080460027FA44AAF1BE0A0EE0E0079C
:1009C0000AD03246684607EB470101230AEB810152
:1009D00000F046FB8DE8070064107F1C002CEED170
:1009E000194F7F44AE3F19E0E80715D007EB04101C
:1009F0000DF1180A90E80E008AE80E00C068F04277
:100A000001D1981908903246012306A903A800F0E5
:100A100027FB03AB83E807006D10641C002DE3D1B6
:100A20004FF0010332466946B8F1000F03A802D027
:100A300000F001FB01E000F013FBC9E90001C9F877
:100A400008200AB0BDE8F087183B00000048704756
:100A5000A00200207546FFF7F9FFAE460500694683
:100A6000534620F00700854618B020B5FFF7A6FBD7
:100A7000BDE820404FF000064FF000074FF000089F
:100A80004FF0000B21F00701AC46ACE8C009ACE820
:100A9000C009ACE8C009ACE8C0098D46704710B584
:100AA0000446AFF300802046BDE81040FFF772BB5C
:100AB0004FF0013C50F8042B51F8043B9A4221D1ED
:100AC000A2EB0C03934313EACC1317D150F8042B79
:100AD00051F8043B9A4215D1A2EB0C03934313EA5D
:100AE000CC130BD150F8042B51F8043B9A4209D196
:100AF000A2EB0C03934313EACC13DBD04FF00000BE
:100B0000704700BFD01A01BAB1FA81F101F01801A3
:100B100022FA01F0CB40C1F12001DBB2C0B2C01A11
:100B20002CFA01F3D11A914311EAC311E6D17047AF
:100B300001491820ABBEFEE72600020070475FEABD
:100B4000400C08BF91F0000F4FEA8C234FEAC122FE
:100B500043EA51514FEA1C5018BF00F5F0404FEAEC
:100B6000300018BF41F000415FEA6C5C00F0298062
:100B7000BCF1FF3F08BF40F080407047130C06BF38
:100B800012044FF0100C4FF0000C130E04BF1202B1
:100B90000CF1080C130F04BF12010CF1040C930F9D
:100BA00004BF92000CF1020CD30F04BF52000CF1F1
:100BB000010C11464FF00002A0F11F00A0EB0C0049
:100BC000704711F0004F08BF704731F000413FF40B
:100BD000D5AF0B0C06BF09044FF0100C4FF0000C02
:100BE0000B0E04BF09020CF1080C0B0F04BF090126
:100BF0000CF1040C8B0F04BF89000CF1020CCB0F1D
:100C000004BF49000CF1010CCCF12003A0EB0C0057
:100C100022FA03F302FA0CF241EA030100F10100A7
:100C2000704720F07F4C80EA030023F07F47ACEB55
:100C3000070303F57C5300F0004003F1FF032DE9A7
:100C400080494FEA154B09B44FEA144325EA0B4E8D
:100C500024EA03480FF2042606EB132749083E78DE
:100C60005FEA320203FB0667C7F5000707FB06F6DB
:100C70004FEA54374FEAD64606F1020607FB066CE8
:100C8000CCF1005C4FEA1C472CEA074C07FB06F44A
:100C90000CFB06F504EB15464FEA961634BF002010
:100CA0004FF000404FEAD13706FB07FC4FEA1C4CDF
:100CB0000CFB0BF7D21B03FB0CF761EB07010CFBE2
:100CC0000EF7B0EB074072EB17420CFB08F734BF8E
:100CD000A2EB0742B2EB074261EB17414FEA0C442B
:100CE0004FEA910706FB07FC4FEA1C4C0CFB0BF785
:100CF000B0EBC74072EB573203FB0CF734BFA2EBEB
:100D0000C742B2EBC74261EB57310CFB0EF7B0EBB9
:100D1000C70072EB57720CFB08F734BFA2EBC70297
:100D2000B2EBC70261EB5771039F4FEA816141EA61
:100D3000921104EBCC044FEAD1374FEA826206FBF2
:100D400007FC42EA90124FEA80604FEA1C4C0CFB11
:100D50000BF7D21B03FB0CF761EB07010CFB0EF743
:100D6000B0EB074072EB17420CFB08F734BFA2EB65
:100D70000742B2EB074261EB17414FEA8C554FEA4D
:100D8000910704EB9C2406FB07FC4FEA1C4C0CFB70
:100D90000BF7B0EBC74072EB573203FB0CF734BFD5
:100DA000A2EBC742B2EBC74261EB57310CFB0EF727
:100DB000B0EBC70072EB57720CFB08F734BFA2EB25
:100DC000C702B2EBC70261EB577115EB4C254FEA36
:100DD000816141EA92114FEA82624FEAD13742EAD9
:100DE000901206FB07FC44F100044FEA80604FEAD2
:100DF0001C4C0CFB0BF7D21B03FB0CF761EB070140
:100E00000CFB0EF7B0EB074072EB17420CFB08F738
:100E100034BFA2EB0742B2EB074261EB174115EB7F
:100E20001C154FEA813141EA92414FEA823242EA8F
:100E300090424FEA80304FEA0C7644F1000448EAD1
:100E400003434EEA0B484FF0000EB2EB080C71EB77
:100E5000030724BF624639464EEB0E0E4FF0000BDF
:100E60000018524149414BEB0B0BB2EB080C71EBF4
:100E700003077BF1000B24BF624639464EEB0E0E92
:100E80004FF0000B0018524149414BEB0B0BB2EBFA
:100E9000080C71EB03077BF1000B24BF6246394657
:100EA0004EEB0E0E51EA020718BF46F0010616EB94
:100EB0000E7655F1000254F1000103D5BDE8890119
:100EC000BDE80088BDE88901BDE80048B619524177
:100ED00041EB0101A3F10103704780807F7E7D7C9F
:100EE0007B7A7978777676757473727171706F6EBC
:100EF0006E6D6C6C6B6A6A69686867666665646467
:100F0000636362616160605F5F5E5E5D5D5C5C5BF0
:100F10005B5A5A595958585757565655555554545F
:100F2000535352525251515050504F4F4F4E4E4DBD
:100F30004D4D4C4C4C4B4B4B4A4A4A494949484809
:100F40004847474747464646454545444444444349
:100F500043434342424242414141002B9C4630D4EC
:100F600077002BD01CB54FEA370703B44FF01000C1
:100F70004FF01001BAF1000F06D0BCF1000FDCBF3A
:100F800040F0080040F008014FF000000FBCBDE841
:100F900010400BF1010BBBF1010F08BF5FEA17070F
:100FA00022BF12F1010211F101014FF0004143F1A2
:100FB000000300F0004043EA00007047F9D35708EF
:100FC000D0E746EA064613F1400F4FEA16461FDD0A
:100FD00013F1200FDFBF16430A46002120335B4286
:100FE000BED0C3F1200746EA064602FA07F74FEAE9
:100FF000164646EA0706C3F1200722FA03F201FA71
:1010000007F721FA03F14FF0000342EA0702A7E7CE
:1010100046EA020646EA06464FEA164646EA010650
:10102000BCBF46EA0646360C4FF000034FF0000204
:101030004FF0000194E72DE9804C9A46934670B436
:1010400091E8380007C831EA400C48BF34EA430C45
:1010500003D5FFF7E6FDFFF780FFF0BCBDE8008C8D
:101060002DE9804C9A46934670B491E8380007C841
:1010700010F0804F08BF13F0804F03D100F005F847
:10108000FFF76BFFF0BCBDE8008C20F07F4780EAE3
:10109000030023F07F4C07EB0C03A3F57C5300F017
:1010A0000040A3F1FE0392F0000F00F0B38095F032
:1010B000000F00F077802DE901494FEA11404FEA17
:1010C000144621EA004800FB06FC24EA064708FB18
:1010D00006F607FB08F800FB07F718EB06484CEB91
:1010E000164C4FEA124B18EB07484FEA15464CEBEB
:1010F000174022EA0B4E0BFB06FC25EA06470EFBC7
:1011000006F607FB0EFE0BFB07F71EEB064E4CEB3D
:10111000164C4FF000061EEB074E4CEB174B18EB2E
:101120000B0840F1000018EB0E0B58EB000840F1E3
:1011300000008F1A4FF000013CBFC943661B14BF6B
:10114000B5EB040C00213CBFC943F61B4FEA174422
:101150004EEA8E0E27EA04454FEA1C4704FB07625D
:101160002CEA074C05FB07F70CFB05F604FB0CFC0F
:1011700016EB074642EB174216EB0C4642EB1C42BD
:101180001BEB060658EB0202414146EA9E0601D5DA
:10119000BDE80189B619524141EB0101A3F10103F8
:1011A000BDE801894FEA14454FEA114724EA054694
:1011B00021EA074C05FB07F406FB07F70CFB06F1D9
:1011C00005FB0CFC11EB074144EB17444FEA1247B7
:1011D00011EB0C4144EB1C4422EA074C05FB07F2DF
:1011E00006FB07F70CFB06F605FB0CFC16EB0746A7
:1011F00042EB174216EB0C4642EB1C456A1854F1C1
:10120000000148BF7047B619524141EB0101A3F1FB
:101210000103704795F0000F37D04FEA11424FEAB3
:10122000144721EA024624EA074C02FB07F106FBB9
:1012300007F70CFB06F402FB0CFC14EB074441EB34
:1012400017414FEA154714EB0C4441EB1C4125EACA
:10125000074C02FB07F506FB07F70CFB06F602FB43
:101260000CFC16EB074645EB174516EB0C4645EB19
:101270001C42121951F1000148BF7047B619524182
:1012800041EB0101A3F1010370474FEA14454FEA16
:10129000114724EA054621EA074C05FB07F106FB46
:1012A00007F70CFB06F24FF0000605FB0CFC12EBF7
:1012B000074241EB174112EB0C4251EB1C4148BF76
:1012C0007047921841EB0101A3F101037047000040
:1012D000014800F084BC00006C00002070B504469A
:1012E00000688168C943C90717D1816821F00101ED
:1012F000816000F035FF05460AE000BF00F030FFD6
:10130000401B022804D920688068C043C00706D06B
:1013100020688068C043C007F0D0002070BDA06A7C
:1013200040F01000A062E06A40F00100E06201209D
:1013300070BD0000F8B5002604460096006881687C
:10134000C943C9072DD0816841F001018160164869
:1013500016490068B0FBF1F000E0401E0090002844
:10136000FBD100F0FDFE054616E000BF00F0F8FEE0
:10137000401B022810D920688068C043C0070BD0EA
:10138000A06A40F01000A062E06A40F00100E06254
:1013900084F824600120F8BD20688068C043C0073D
:1013A000E4D10020F8BD00006000002040420F00A2
:1013B00010B54FF40061104800F0C8FE044600F07C
:1013C000CFFE0E490A78944201D048600C704A68FA
:1013D000801A14280FD9487884420CD04C70002C05
:1013E00009D1887828B100208870BDE8104000F04D
:1013F00077B90120F8E710BD000801400C0000207B
:10140000014840687047000000000020044B08B10C
:10141000012200E000220221184600F09CBE0000DC
:10142000000801402DE9F34F8DB0EFF3108072B644
:1014300046498F69CE698A6ACB6A01930A92D1F8CC
:1014400020904D6A0A6B4B6BCDE9062391F900B0F1
:1014500091F901A080F3108800F088F80A9A80467C
:10146000019B0C46B81A66EB030102F064FD384993
:1014700002F0D6FD0190B8EB070064EB060102F024
:101480005AFD334902F0CCFD06460146019802F0B0
:1014900093FE00D2019EDDE90623B9EB0200089617
:1014A00065EB030102F047FD294F394602F0B8FD14
:1014B0000646B8EB090064EB050102F03CFD394635
:1014C00002F0AEFD04460146304602F075FE00D340
:1014D000264600241F4D204FDFF88080BBF1020F0D
:1014E0002ED01BF1020F2BD0584602F009FD0899AF
:1014F00002F0F0FB294602F0EDFB394602F0EAFB70
:10150000414602F08DFD0D99C1F80000BAF1020FBD
:1015100019D01AF1020F16D0504602F0F1FC3146F4
:1015200002F0D8FB294602F0D5FB394602F0D2FB87
:10153000414602F075FD0E9908600FB0BDE8F08FCE
:101540000D980460E2E70E980460F6E718000020AA
:10155000BD3786350000B041F344A341DB0FC940DD
:1015600000221146501E00F06BBF000070B5EFF373
:10157000108072B60E4B0D494FF0E0221D780B68BB
:1015800094691669F60303D50B682B440B60F6E7E4
:1015900080F3108850694FF47A72401C011B51434C
:1015A000B1FBF0F00021E3FB020170BD5C00002004
:1015B000540000202DE9F0410446204D014602F080
:1015C0004BFC01D000240BE0AC4201DD2C4607E0CF
:1015D0001B48844201D9044604E014F1FF4F01D2B4
:1015E000012601E04FF0FF3624F00040294602F0CA
:1015F00071FB144902F014FD02F062FC0446300055
:10160000114D4FF400774FF480664FF0010206D57C
:101610003946284600F09FFD0022314605E031465C
:10162000284600F098FD00223946284600F093FD38
:10163000064800684463BDE8F08100000000C8422D
:101640000000C8C200007A4400080140F0000020F9
:1016500070B504461D4D014602F0FEFB01D000248A
:101660000BE0AC4201DD2C4607E01948844201D969
:10167000044604E014F1FF4F01D2012601E04FF0CF
:10168000FF3624F00040294602F024FB114902F005
:10169000C7FC02F015FC104D0446002E4FF001026D
:1016A00006DD2021284600F056FD0022802105E0BD
:1016B0008021284600F04FFD00222021284600F01E
:1016C0004AFD06480068446370BD00000000C8423F
:1016D0000000C8C200007A44000C014080010020D4
:1016E00010B5FFF793FE044802F02DFA0248BDE85A
:1016F0001040283002F027BA1002002070B50D4CBF
:101700004FF07C550023224629460B4802F004FA8C
:101710000948002322462946283002F0FDF900211D
:10172000064801F0D3FBBDE870400021044801F0F9
:10173000CDBB00000000E04010020020F0000020BF
:10174000800100202DE9FC4100F00AFD234C2168B6
:10175000884241D300F004FD401C206001A9684686
:10176000FFF760FEFFF74CFE0446B0F17E5F04DA3F
:101770000020FFF71FFF00202CE084F0004102460C
:101780000D46174802F0DCF9154829462246283054
:1017900002F0D6F91248009901F072FE0646104890
:1017A0000199283001F06CFE05462146304602F0D2
:1017B00091FA0C4F394602F033FC06462146284682
:1017C00002F088FA394602F02BFC04463046FFF757
:1017D000F1FE2046FFF73CFFBDE8FC8150000020F1
:1017E000100200200000C8420146014802F091B9F1
:1017F000100200200146014802F08BB93802002097
:10180000FEE770474FF4804000F0A4BB082000F0D2
:10181000A1BB72B6FEE70000F8B50022009290F876
:10182000244083681646012C1CD0012480F82440F3
:10183000D3B14D680B691F249D4226D81F055B1B41
:10184000C3F103030D6803EB83039D40A7F58017E5
:101850002F439C40036844F440159C6BAC432743E2
:101860009F631EE00220F8BD4B68012B05D0826A01
:1018700042F020028262012213E003689C6B0D6833
:101880006FF3150444EAC5340AE05B1BC3F103039C
:1018900003EB83039C40036844F440159C6BAC430A
:1018A0009C6303689C68E443E40706D09C6847F2A5
:1018B0000105AC438D692C439C604B7D012B08D105
:1018C0008B69B3F5E04F08D0826A42F02002826251
:1018D00001220B7D012B06D00CE003685C6844F408
:1018E00080645C60F5E74B7DA3B1826A42F0200220
:1018F000826201220B68072405680A2B10D3EF6867
:101900000A3B03EB43039C40A7438C689C4027435E
:10191000EF600EE003685C6844F480545C60E9E7C3
:101920002F6903EB43039C40A7438C689C402743EB
:101930002F610B68102B01D0112B04D103689C6818
:1019400044F400049C604B68012B10D0022B16D08D
:10195000032B03681BD01C6ACD686FF30B042C4368
:101960001C620B68102B19D0112B17D037E00368BD
:101970005C69CD686FF30B042C435C61F1E703688D
:101980009C69CD686FF30B042C439C61E9E7DC692B
:10199000CD686FF30B042C43DC61E2E7124C036863
:1019A000A34217D19C68240219D49C6844F4000413
:1019B0009C600968102912D10C490D4B0968B1FBD4
:1019C000F3F101EB8101490000E0491E009100297B
:1019D000FBD104E0816A41F020018162012280F89C
:1019E00024601046F8BD0000002401406000002083
:1019F00040420F0070B506460068384988426CD1F5
:101A00000121374800F080F802F0C2FA354D29462E
:101A100002F006FB344902F05DF9344C6060606806
:101A2000A84200DD656061683148814200DA60608B
:101A300060683049304D88420BDD01221021284674
:101A400000F089FB01222021284600F084FB0122BE
:101A50001FE060682949884206DD012210212846DE
:101A600000F079FB01220FE060682549884201DD22
:101A7000012204E06068234988420FDD0022102122
:101A8000284600F068FB00222021284600F063FB76
:101A900000224021284600F05EFB19E000F060FBC8
:101AA000A168411A642913D3A060207810B10128DD
:101AB0000ED106E001227021284600F04CFB0120E7
:101AC00005E000227021284600F045FB0020207030
:101AD0003068416841F08001416070BD00240140E0
:101AE0006C0000206666064100F07F450000002083
:101AF0000000C040CDCCFC4000080140CDCCEC4003
:101B00000000E0400000D0400068022909D003290D
:101B100005D0042901D0C06B7047806C7047406CC1
:101B20007047006C7047000070B5044690F82400C0
:101B300001280DD0012084F824002046FFF7FAFB8D
:101B400001004FF0000005D084F82400084670BD65
:101B5000022070BDA26A42F201039A4342F480520D
:101B6000A2621C4A25681C4B95421FD11E6816F4C0
:101B7000702F1BD0A66A46F48016A662A66AF605E8
:101B800000D4E06284F824006FF00400286020682C
:101B9000456845F080054560206844686405D5D4F3
:101BA0008468C4F30234072C04D009E0A66A26F442
:101BB0008016E2E7904208D11A6812F4702F04D020
:101BC000826842F400428260C0E7826842F40212F6
:101BD000F9E700000028014004240140704770B577
:101BE0000446006806684568A90625D5B10723D5CF
:101BF000A16AC90603D4A16A41F40071A162816897
:101C0000C1F34241072910D1217B71B9416821F00C
:101C100020014160A06A20F48070A062A06AC00424
:101C200003D4A06A40F00100A0622046FFF7D6FF6F
:101C300021686FF01200086028062ED570072CD599
:101C4000A06AC00603D4A06A40F40050A0622068D5
:101C50008168C1F30231072909D04168490515D4CB
:101C60008168C1F34241072910D1217B71B94168D4
:101C700021F080014160A06A20F48050A062A06A37
:101C8000C00503D4A06A40F00100A0622046FFF71F
:101C9000B1FE21686FF00C00086068060CD5F007F3
:101CA0000AD0A06A40F48030A062204600F094F888
:101CB00021686FF00100086070BD00002DE9F0415F
:101CC0004FF0000704003D467ED0A06A002628B9E8
:101CD000E66284F82460204600F080F82046FFF792
:101CE000FDFAA16AC90600D420B1A06A40F0100034
:101CF000A06269E0A16A21F4885141F00201A16269
:101D00006268E169237B0A4347EA43010A43A16809
:101D10004FF48077B94209D0012907D05FF0000164
:101D200094F814C0BCF1010F02D00AE03946F7E77D
:101D3000F3B1A36A43F02003A362E36A43F0010313
:101D4000E3622368D3F804C02CF4694C4CEA010C1C
:101D5000C3F804C021688B68DFF870C003EA0C0385
:101D600013438B60A168B9420BD0012909D00CE064
:101D7000DFF85CC0A3690CEB43330B4343F4006111
:101D8000DFE7218A0D05A5F580152168CB6A23F4CC
:101D900070032B43CB62216889680E4B1940914236
:101DA00008D1E662A16A21F0020141F00101A162BD
:101DB000BDE8F081A06A20F0020040F01000A062AF
:101DC000E06A40F00100E0620120F1E7FDF7E1FF89
:101DD00000E0FFFFFE0E1FFF7047000000B585B05A
:101DE00000210091019102910391006812498842FB
:101DF00020D11248816941F400718161816901F447
:101E000000710491816941F008018161806969462E
:101E100000F0080004900120009003200190084881
:101E200000F0A4F800220221122000F009FB122089
:101E300000F0F8FA05B000BD002401400010024097
:101E4000000C01402DE9F04701264FF4804A3F4D38
:101E5000F71E3F4C4FF0FF384FF00209504539D183
:101E6000A169E069A162E062FFF780FBA061E16126
:101E70005146AA46284600F069F90546F103504646
:101E800000F064F9012D01D015B103E088B101E043
:101E900001280ED0A068E168401C41F10001A0605B
:101EA000E16094F90000002812DA48462070BDE88D
:101EB000F087A068E168401E41F1FF31A060E16059
:101EC00094F90000002801DD2770F0E74046EDE7B7
:101ED0002670ECE70828EAD1206A616A2063616312
:101EE000FFF744FB206261620821AA46284600F001
:101EF0002DF905461021504600F028F9012D01D09A
:101F000015B103E078B101E001280CD020696169C6
:101F1000401E41F1FF312061616194F90100002808
:101F200010DD6770C3E720696169401C41F1000161
:101F30002061616194F90100002801DA484602E05D
:101F40006670B4E740466070B1E70000000C0140E5
:101F500018000020044910B50A68024202D0086047
:101F6000FFF770FF10BD0000140401402DE9F84F89
:101F7000DFF8B8910024A9F1040B23460F2709F1DB
:101F8000040AABF1040EC9E00125A5402A40AA428B
:101F90007DD1674ED1F804C0ACEB0608B44532D011
:101FA00014DCBCF1030F3AD009DCBCF1000F2AD0DD
:101FB000BCF1010F1CD0BCF1020F31D11DE0BCF10E
:101FC000110F17D0BCF1120F2AD119E0B8F5881FF4
:101FD00019D006DCB8F5803F15D0B8F5801F1FD1A9
:101FE00011E0B8F5001F0ED0B8F5041F18D10AE0B3
:101FF000CB6815E0CB681B1D12E0CB6808330FE0FF
:10200000CB680C330CE08B682BB1012B4FF008032D
:1020100003D0456104E0042302E0056100E00023F1
:10202000FF2A01D8064601E000F104064FEA8405C4
:1020300001D9A5F12005D6F8008007FA05FC28EAA9
:102040000C0803FA05F548EA0508C6F800804D6853
:10205000ED0062D5374DAE6946F00106AE61AD695F
:1020600024F0030605F001050095334D06EB050C41
:10207000DCF80850A607360F07FA06F825EA080527
:10208000DFF8B880404503D14FF0000817E044E086
:10209000DFF8AC80404502D14FF001080FE0DFF8D7
:1020A000A480404502D14FF0020808E0DFF8988094
:1020B000404502D14FF0030801E04FF0040808FA50
:1020C00006F848EA0508CCF808804D68D9F80060A1
:1020D000ED024D4601D5164300E096432E604D6853
:1020E000DAF80060AD02554601D5164300E096438C
:1020F0002E604D68DBF80060AD035D4601D51643E8
:1021000000E096432E604D68DEF80060ED037546F2
:1021100001D5164300E096432E60641C0D682A46E4
:10212000E5407FF431AFBDE8F88F000008040140BE
:1021300000001110001002400000014000080140A2
:10214000000C01400010014000140140806808406C
:1021500000D0012070470AB1016170470904FBE714
:1021600001488068704700005400002070B50400EA
:1021700025D094F83D00002520B984F83C50204635
:1021800000F0B8F8242084F83D002068016821F0B0
:10219000010101602068016841F40041016020688C
:1021A000016821F40041016000F088FA4D4A61683D
:1021B000914201D84C4900E04C49884201D20120AB
:1021C00070BD4B492368B0FBF1F15E6826F03F0615
:1021D0000E435E606368934206D94FF49673594389
:1021E0004FF47A73B1FBF3F12368491C1E6A26F0A1
:1021F0003F06314319626168914210D84900401E80
:10220000B0FBF1F2521CC2F30B02042A01D20420EB
:1022100022E0B0FBF1F0401CC0F30B001CE0A26810
:10222000F2B301EBC10303EB0116431EB3FBF6F35C
:102230005B1C43F480431B0549D092B301EBC10200
:1022400002EB0111401EB0FBF1F0401CC0F30B008B
:1022500040F4804040F400402168CA694CF6FF73A6
:102260009A431043C861D4E907100143206802680B
:1022700022F0C00211430160D4E903010143206848
:10228000826848F2FF339A4311438160D4E9050123
:1022900008432168CA6822F0FF021043C86001E0C9
:1022A0000EE016E02068016841F00101016025643C
:1022B000202084F83D00256384F83E50002070BD46
:1022C00001EB4106431EB3FBF6F35B1CB3E70120B1
:1022D000C2E701EB4101401EB0FBF1F0401CC0F32E
:1022E0000B00B7E7A086010080841E0000093D00B6
:1022F00040420F0010B586B000210091019102917B
:10230000039100681349884222D1134CA06940F020
:102310000800A061A069694600F0080004904FF42D
:102320004070009012200190032003900B48FFF7AB
:102330001DFE0B48416841F0E06141F0020141603F
:10234000E06940F40010E061E06900F400100490DE
:1023500006B010BD0054004000100240000C0140C7
:10236000000001404FF0E0200069C00305D503489C
:102370000168034A12781144016070475C00002034
:1023800054000020074810B5016841F010010160B9
:10239000032000F075F80F2000F006F800F024F894
:1023A000002010BD0020024070B50D4D04464FF4D2
:1023B0007A712878B1FBF0F00A490968B1FBF0F0B6
:1023C00000F052FB48B9102C07D200222146501EC3
:1023D00000F036F800206C6070BD012070BD000078
:1023E00054000020600000200C4808B5816941F0CD
:1023F00001018161816901F001010091C16941F030
:102400008051C161C06900F080500090044841686B
:1024100021F0E06141F00071416008BD0010024010
:1024200000000140002809DB00F01F02012191405B
:102430004009800000F1E020C0F800117047000062
:10244000F0B40E4B1B680C46C3F30223C3F107051F
:10245000042D00D90425191D072901D2002300E00D
:10246000DB1E012606FA05F1491E214099409E40D7
:10247000761E16403143F0BC01F007BB0CED00E0C6
:10248000064900F0070208684FF6FF03184040EACB
:102490000220034A10430860704700000CED00E082
:1024A0000000FA052DE9F84305460078354CC007D1
:1024B00054D0E0690026C00008D4E06940F08050A4
:1024C000E061E069012600F0805000902E4801682C
:1024D000C90512D40168804641F480710160FFF79C
:1024E0003FFE074605E000BFFFF73AFEC01B642829
:1024F00023D8D8F80000C005F6D5206A10F4407043
:1025000021D0A98801F4407181421CD0206A1F4962
:10251000012220F440700A6000220A602062C00795
:1025200011D0FFF71DFE074641F2883808E000BFD2
:10253000FFF716FEC11B414502D90320BDE8F88311
:10254000206A8007F4D5206A696820F44070084347
:1025500020621EB1E06920F08050E0612878800799
:1025600005D56068A96820F4404008436060287879
:10257000C00605D56068E96820F480000843606003
:102580000020DBE70010024000700040400442429F
:102590002DE9F0470F46050061D0434E306800F04A
:1025A0000700B84209D2306820F007003843306095
:1025B000306800F00700B84251D128683B4C8107D1
:1025C00012D5400703D5606840F4E0606060287869
:1025D000000703D5606840F4605060606068A968D7
:1025E00020F0F000084360602878C00728D06868B1
:1025F000012810D02168022810D0890700292EDA7E
:10260000616821F0030101436160FFF7A9FD804685
:1026100041F288390DE021688903EFE78901EDE790
:10262000FFF79EFDA0EB0801494502D90320BDE854
:10263000F0876068696800F00C00B0EB810FEFD1A3
:10264000306800F00700B8420BD9306820F007006E
:1026500038433060306800F00700B84201D00120F4
:10266000E5E72878400705D56068E96820F4E06070
:10267000084360602878000706D56068296920F45F
:10268000605040EAC100606000F038F86168084AB4
:10269000C1F30311515CC840064908600648006850
:1026A000FFF782FE0020C2E7002002400010024037
:1026B000FC43000860000020580000200448054941
:1026C00000684968044AC1F30221515CC840704760
:1026D00060000020001002400C4400080448054936
:1026E00000684968044AC1F3C221515CC840704780
:1026F00060000020001002400C4400080E4A51689F
:102700000E4801F00C03042B11D0082B0FD10C48FC
:10271000C1F38343C903C05C0AD55168084AC1F3B9
:102720004041921E515C054A5043B0FBF1F07047A6
:1027300004494843704700000010024000127A002C
:10274000EC43000800093D002DE9F84F040070D06B
:102750002078C04DC00749D06868C0F381000128C7
:1027600007D06868C0F38100022809D16868C003F7
:1027700006D52868800339D560680028E7D035E0A1
:102780006068B0F5803F0BD010B1B0F5A02F11D02C
:10279000286820F480302860286820F4802002E037
:1027A000286840F480302860606890B1FFF7D8FC5A
:1027B00006460AE0286840F480202860F0E700BF61
:1027C000FFF7CEFC801B642873D828688003F7D5F8
:1027D0000CE0FFF7C5FC064605E000BFFFF7C0FCB4
:1027E000801B6428F0D828688003F7D420789A4E9C
:1027F00080074FF001094FF0000839D5686810F0E4
:102800000C0F07D06868C0F38100022809D16868FE
:10281000C00306D42868800714D52069012808D190
:1028200010E02069B0B1C6F80090FFF799FC0746A8
:1028300005E00AE1FFF794FCC01B0228C4D8286811
:102840008007F7D52868616920F0F80040EAC100E8
:1028500028600DE0C6F80080FFF782FC074604E020
:10286000FFF77EFCC01B022823D828688007F7D416
:10287000207800072CD57948A169D9B1C0F800901B
:10288000FFF76EFC074604E0FFF76AFCC01B022856
:102890000FD8686A8007F7D571484FF4FA5100687D
:1028A000B0FBF1F0009000BF0098411E0091FAD2F9
:1028B0000EE080E0C0F80080FFF752FC074604E01D
:1028C000FFF74EFCC01B022875D8686A8007F7D452
:1028D0002078400760D5E8690027C00008D4E8697F
:1028E00040F08050E861E869012700F080500090D6
:1028F0005C480168C90513D40168834641F48071BE
:102900000160FFF72DFC824606E000BFFFF728FCC0
:10291000A0EB0A0064284ED8DBF80000C005F5D50E
:10292000E06801280AD008B1052813D0286A20F0F1
:1029300001002862286A20F0040002E0286A40F0C2
:1029400001002862E06841F2883B98B1FFF708FC7B
:1029500082460BE0286A40F004002862EEE700BFE0
:10296000FFF7FEFBA0EB0A0159455AD8286A8007F9
:10297000F6D50CE0FFF7F4FB824605E0FFF7F0FB2D
:10298000A0EB0A0159454CD8286A8007F6D41FB13C
:10299000E86920F08050E861E06988B36968C1F3B4
:1029A0008101022944D00228C6F8608004D0FFF7D4
:1029B000D7FB044638E034E0FFF7D2FB074604E0DB
:1029C000FFF7CEFBC01B02282BD828688001F7D464
:1029D000206AB0F5803F05D16868A16820F4003016
:1029E00008436860D4E908010843696821F4741158
:1029F00008436860C6F86090FFF7B2FB044606E043
:102A000025E000BFFFF7ACFB001B022809D82868AF
:102A10008001F7D51BE000BFFFF7A2FB001B0228D7
:102A200002D90320BDE8F88F28688001F4D40EE0B5
:102A30000128F7D06868226A00F48031914204D1FD
:102A4000616A00F47010884201D00120EAE700209A
:102A5000E8E70000001002400000424280044242C9
:102A6000600000200070004010B5401EB0F1807F73
:102A700001D3012010BD4FF0E02460610F216017E9
:102A800001F003F80020A06107202061002010BDA4
:102A900010B590F83C20012A22D0012280F83C2079
:102AA000CA688C6822F4407222434C6822F4806227
:102AB00022430C6822F4006222430C6922F4805203
:102AC00022434C6922F400522243C969002322F4B4
:102AD00080420A4301684A6480F83C30002010BDFF
:102AE000022010BD70B590F83C20012A26D00124A8
:102AF00080F83C40022280F83D2003685A689D68B7
:102B000022F070060A6832435A600D4B02689A42FE
:102B100008D0B2F1804F05D00A4B9A4202D00A4B3E
:102B20009A4204D1496825F080031943916080F8E6
:102B30003D40002180F83C10084670BD022070BD69
:102B4000002C0140000400400008004010B50400C3
:102B500003D094F83D0010B107E0012010BD002023
:102B600084F83C00204600F01FF8022084F83D0065
:102B7000211D206800F054FD012084F8460084F8EF
:102B80003E0084F83F0084F8400084F8410084F857
:102B9000420084F8430084F8440084F8450084F837
:102BA0003D00002010BD000008B5124A016812481F
:102BB000914207D1816941F400618161806900F42B
:102BC000006014E0B1F1804F0AD00C4A91420FD15D
:102BD000C16941F00401C161C06900F0040006E070
:102BE000C16941F00101C161C06900F001000090BC
:102BF00008BD0000002C0140001002400008004009
:102C000090F83D10012901D001207047022180F881
:102C10003D1000680B49884208D0B0F1804F05D0C4
:102C20000949884202D00949884204D1816801F0EB
:102C30000701062903D0016841F00101016000206D
:102C400070470000002C01400004004000080040D4
:102C500070B5044690F83C000025012817D00126E5
:102C600084F83C60022084F83D002068826822F0ED
:102C7000770222F47F4282600868502838D00DDC49
:102C800020284FD005DC90B3102811D14AE0022053
:102C900070BD302846D040280AD13BE060282FD0B4
:102CA00070280DD0B0F5805F03D0B0F5005F12D072
:102CB000012584F83D60002084F83C00284670BD62
:102CC000CB68D1E90121206800F0F3FC206881681D
:102CD00041F0770109E0CB68D1E90121206800F0DB
:102CE000E8FC2068816841F480418160E1E719E0F7
:102CF000CA684968206800F091FD5021206806E00C
:102D0000CA684968206800F09AFD6021206800F0D8
:102D1000DAFCCEE7CA684968206800F07FFD4021F0
:102D20002068F4E7226801461046F0E700B585B058
:102D300000210091019102910391154B0268154801
:102D400002219A420ED1826942F0040282618069B6
:102D5000039100F004000490C801CDE90001694628
:102D60000D4810E00D4B9A420FD1826942F00802E3
:102D700082618069039100F0080004904020CDE951
:102D8000000169460648FFF7F1F805B000BD0000F4
:102D9000002C0140001002400008014000080040E3
:102DA000000C014070B5044690F83C0000260D462A
:102DB00001280FD0012084F83C006AB1042A1DD0FC
:102DC000082A2FD00C2A3FD00126002084F83C008E
:102DD000304670BD022070BD206800F07DFC206888
:102DE000816941F0080181612068816921F0040155
:102DF0008161206881692A69114311E0206800F02F
:102E000093FC2068816941F40061816120688169D7
:102E100021F480618161206881692A6941EA022187
:102E20008161D2E7206800F0ABFC2068C16941F005
:102E30000801C1612068C16921F00401C1612068F5
:102E4000C1692A69114311E0206800F0C5FC2068BF
:102E5000C16941F40061C1612068C16921F48061E8
:102E6000C1612068C1692A6941EA0221C161ACE7F8
:102E700010B5040003D094F83D0010B107E0012024
:102E800010BD002084F83C00204600F01EF802200F
:102E900084F83D00211D206800F0C2FB012084F869
:102EA000460084F83E0084F83F0084F8400084F82F
:102EB000410084F8420084F8430084F8440084F818
:102EC000450084F83D00002010BD704710B5044651
:102ED000022249B104290ED0082913D094F84100E8
:102EE000012816D0012010BD94F83E000128F9D128
:102EF00084F83E200FE094F83F000128F2D184F8D6
:102F00003F2008E094F840000128EBD184F84020ED
:102F100001E084F841200122206800F0BDFB0F4948
:102F20002068884203D1426C42F400424264206827
:102F3000884208D0B0F1804F05D00949884202D0BC
:102F40000849884204D1816801F00701062903D0AD
:102F5000016841F001010160002010BD002C01401A
:102F6000000400400008004070B5040004D094F84C
:102F70004100002510B106E0012070BD84F84050EA
:102F8000204600F023F8242084F841002068C1681E
:102F900021F40051C160204600F08AFC20680169DC
:102FA00021F4904101612068416921F02A014161C9
:102FB0002068C16841F40051C1606564202084F834
:102FC000410084F842006563002070BD30B585B0D3
:102FD00000240094019402940394006814498842E8
:102FE00023D11448C16941F40031C161C16901F4C0
:102FF00000310491816941F00401816180690E4DC5
:1030000000F00400049004200090022001900320AE
:10301000039069462846FEF7A9FF0820CDE9000481
:10302000694628460294FEF7A1FF05B030BD0000B6
:103030000044004000100240000801402DE9F84320
:10304000044690F84100984616460D46202802D0C6
:103050000220BDE8F88385B17EB1002060642120A4
:1030600084F84100FFF77CF8A6848146E684A068D6
:103070002027B0F5805F02D003E00120E9E7206956
:1030800010B12E4600250EE000260CE080212046DF
:1030900000F06AFCA8B9C6B116F8010B21684860B7
:1030A000E08C401EE084E08C4B464FF00002CDF8EF
:1030B00000800028EAD14FF04001204600F054FC87
:1030C00040B184F841700320C3E735F8020BC0F328
:1030D0000800E3E784F841700020BAE7FEE700004B
:1030E00030B587B01C216846FDF75DF9144800240F
:1030F00012498460016004730475012505614FF471
:1031000060214460C161FEF7D9FD08B1FEF781FB83
:103110000820CDE90005800206908DF81540049541
:1031200002958DF81440694605480394FEF774FB38
:10313000002801D0FEF76DFB07B030BD0024014030
:103140006C0000202DE9F04186B000243548009441
:10315000019402940394816941F0200181618169A5
:1031600001F020010491816941F0040181618169CC
:1031700001F004010491816941F0080181618069D5
:10318000294F00F0080040F27265049000222946A1
:103190003846FEF7E0FFDFF894800022A021404689
:1031A000FEF7D9FF0095022601250396CDE90154CB
:1031B00069463846FEF7DAFE44F2080000901C48E3
:1031C000CDE9010569464046FEF7D0FE48F2100001
:1031D0008DE8310069464046FEF7C8FEE8028DE8FA
:1031E000310069463846FEF7C1FEA020CDE9000552
:1031F000CDE9024669464046FEF7B8FE0022114678
:103200000920FFF71DF90920FFF70CF900221146EC
:103210002820FFF715F92820FFF704F906B0BDE8CC
:10322000F08100000010024000080140000C014045
:10323000000031100D4810B50B4901600C49416088
:1032400000214FF480428160C0E903124161816135
:10325000C1610162FEF78AFF002803D0BDE810407B
:10326000FEF7D7BA10BD0000005400409C000020BB
:10327000801A060010B596B000240F941094119493
:10328000129413941C2108A81494FDF78CF82021A3
:103290006846FDF788F829482749C0E9001440F23C
:1032A000E731C0E9024180210461C0E90541FFF72F
:1032B0004DFC08B1FEF7ADFA4FF480500F900FA906
:1032C0001E48FFF7C5FC08B1FEF7A3FA1B48FFF73D
:1032D000CFFD08B1FEF79DFA139413A91748149473
:1032E000FFF700FC08B1FEF794FA6020CDE908046E
:1032F00004200A94CDE90B400D94002208A90F4840
:103300000E94FFF74FFD08B1FEF783FA00944FF4D7
:103310000050CDE9044002940194039469460748A3
:103320000794FFF7B5FB08B1FEF773FA0348FFF700
:10333000FDFC16B010BD0000002C0140F000002084
:1033400010B586B0002417480094019402940394A9
:1033500004944FF08041059401604721C0E90114B5
:1033600042F20F71C0E903148461FFF7EFFB08B16B
:10337000FEF74FFA4FF48050009069460948FFF776
:1033800067FC08B1FEF745FA2020CDE9040404A942
:103390000448FFF7A7FB002801D0FEF73AFA06B071
:1033A00010BD00003801002010B58EB00024079435
:1033B000089409940A940B941C2168460C94FCF719
:1033C000F2FF1F481D49C0E9001440F2E731C0E98F
:1033D0000241802104618161FFF7B8FB08B1FEF76B
:1033E00018FA4FF48050079007A91548FFF730FCF2
:1033F00008B1FEF70EFA1248FFF73AFD08B1FEF7E2
:1034000008FA0B940BA90E480C94FFF76BFB08B15C
:10341000FEF7FFF96020CDE90004042004900022AB
:10342000694602940648FFF7BDFC08B1FEF7F1F9C2
:103430000348FFF77BFC0EB010BD00000008004001
:10344000800100200C4810B50A4901604FF4E131B9
:103450004160002181600C22C160C0E904128161D9
:10346000C161FFF781FD002803D0BDE81040FEF7E1
:10347000D0B910BD00440040C8010020FEE7FEE7BF
:103480002DE9F84F0446C06800F0C8FE8346216865
:1034900000F0C6FD0090FEF763FE0546D4E9046027
:1034A0000027AA1B804667EB0001104600F040FD94
:1034B0002A4900F00FFC8246B94656EA080631D088
:1034C000A66816F0FF4F0AD05846A16900F0A6FE84
:1034D000314600F0A5FD514600F0FCFB81466668D0
:1034E00016F0FF4F1ED05846A16900F07FFB314611
:1034F00000F096FD514600F093FD4FF0FF3100F0D3
:1035000036FFE16900F072FBE061216A00F054FED1
:1035100001D2206AE061616AE06900F04DFD01D2EC
:10352000606AE061E169009800F060FB494600F0E4
:103530005DFB064604F1100080E8A0083046216AD1
:1035400000F03AFE00D2266A616A304600F034FD8F
:1035500000D2666A3046BDE8F88F000000007A4469
:103560007047000010B5FEF7FBFD4FF47A71B0FB19
:10357000F1F00A21B0FBF1F201FB120000F008FDAE
:10358000012100F0F4FE054C2060FEF72DF92068C3
:10359000FEF730F9BDE8104000F020BA64000020CA
:1035A0007047FEF7DFBE30B593B028216846FCF7C0
:1035B000FAFE14210AA8FCF7F6FE002501200F955B
:1035C00010951195010412958DE8230004904FF495
:1035D000E010CDE90810022407946846FFF7B4F81C
:1035E00008B172B6FEE70AA90F2081E831004FF456
:1035F0008060CDE90D0502210AA8FEF7C9FF08B1D8
:1036000072B6FEE74FF4004011900F940FA8FEF73A
:1036100049FF002801D072B6FEE713B030BD7047F5
:10362000F0B50268194B1A4C1A4D4FF0804798427A
:1036300005D0B84203D0A04201D0A84203D122F065
:1036400070064A683243984205D0B84203D0A0427F
:1036500001D0A84203D122F44074CA6822434C69C5
:1036600022F08002224302608A68C2620A68826293
:10367000984201D109690163012141610169C907CA
:1036800003D0016921F001010161F0BD002C01406E
:10369000000400400008004010B501F01F030121A4
:1036A000046A99408C430462016A9A4011430162A2
:1036B00010BD10B5846842EA032224F47F440A4313
:1036C0002243826010BD826822F070020A4342F0F9
:1036D000070181607047000030B5036A026A22F07A
:1036E000010202624268846924F073050C682C436D
:1036F00023F002058B682B430A4DA8420BD123F01F
:103700000805CB6822F440722B434D6923F0040373
:1037100015438A692A4342608461496841630362B0
:1037200030BD0000002C014030B5026A036A23F06E
:1037300010030362436884690D6824F4E64444EA94
:1037400005248D6822F0200242EA05120B4DA842A2
:103750000ED1CD6822F0800242EA05124D6923F4B1
:10376000406343EA85038D6922F0400243EA850302
:103770004360846149688163026230BD002C01406E
:1037800030B5036A026A22F4807202624268C46938
:1037900023F4007324F073050C682C438D6843EA0E
:1037A00005230C4DA8420ED1CD6823F4006343EAF3
:1037B00005234D6922F4405242EA05128D6923F433
:1037C000806342EA05124260C4614968C1630362D2
:1037D00030BD0000002C014030B5046A026A22F4BA
:1037E000805202624268C3690D6823F4E64343EAEB
:1037F00005238D6824F4005444EA0534064DA8429C
:1038000004D14D6922F4804242EA85124260C361CC
:1038100049680164046230BD002C014010B5036AA0
:10382000046A24F001040462846924F0F00444EA88
:10383000021423F00A020A438461026210BD10B52B
:10384000036A046A24F010040462846923F0A0036C
:1038500024F4704444EA023243EA011182610162B5
:1038600010BD01680C3151E8002F22F4907241E83C
:103870000023002BF5D10168143151E8002F22F00C
:10388000010241E80023002BF5D1016B012909D188
:1038900001680C3151E8002F22F0100241E80023AA
:1038A000002BF5D1202180F84210002101637047E0
:1038B00070B5044600680169E26821F44051114383
:1038C00001612169A0680843616908432168CA68E9
:1038D00041F20C639A430243CA6020684169A269BD
:1038E00021F44071114341611E492068884202D190
:1038F000FEF7F4FE01E0FEF7E1FE00EBC00101EB94
:103900000012606864218000B2FBF0F3B3FBF1F3B6
:103910006FF018067343B2FBF0F5B2FBF0F605EB5F
:103920008305322303EB0515B5FBF1F5B6FBF1F684
:1039300005F0F00505EB0615B2FBF0F6B2FBF0F072
:10394000B0FBF1F06FF01802504306EB800003EB80
:103950000010B0FBF1F0216800F00F0028448860EF
:1039600070BD0000003801402DE9F8439846174625
:103970000D460446089E24E0701C22D0FEF7F0FBA2
:10398000A0EB0800B0421AD8CEB12068C168490740
:1039900017D5802D15D0402D13D00168C9430907D4
:1039A0000FD401680025406800902046FFF759FFBA
:1039B0000820606484F840500120BDE8F8830320AB
:1039C000FBE72068006835EA000004D00020B84218
:1039D000D2D00020F1E70120F9E700002DE9F04105
:1039E00086B0FEF7BDFB174C6168884227D3FEF70F
:1039F000B7FB0A306060A04605A904A8FDF712FDD8
:103A0000059800F0C7F806460F46049800F0C2F883
:103A100004460D46D8F8000000F0BCF88DE8F00030
:103A200002460B4608A10C48FCF7DAFB0A48FCF7F3
:103A30009BFC82B2642308490848FFF7FFFA06B0EE
:103A4000BDE8F08164000020252E33662C252E333E
:103A5000662C252E33660A0060020020C801002073
:103A6000FEE7490050EAC12018BF04204A0D18BFE4
:103A700040F0010040F2FF72B2EB515F08BF40F02E
:103A80000200012808BF052070470907090E002819
:103A900004DB00F1E02080F80014704700F00F0014
:103AA00000F1E02080F8141D704730380A2801D258
:103AB000012070470020704710B50448FFF7A0F8B8
:103AC000BDE810400248FEF72FB800003801002082
:103AD0006C000020FEF756FCFFF765FDFFF732FB98
:103AE000FFF7FEFAFFF72CFCFFF7C4FBFFF75CFCC7
:103AF000FFF7A8FCFFF79EFBFFF7DEFFFDF730FDA9
:103B0000FDF7FCFDFDF754FCFDF71CFEFFF72AFD59
:103B1000F8E7C1607047000070B5002580E82E000E
:103B20000446FEF71DFBC4E904050348A561C4E98A
:103B300007500248606270BD9EC97F7F9EC97FFFAB
:103B4000C0E90821704710B50446FEF709FB01469D
:103B50000020C4E90410A061E06110BD10B5002987
:103B60000AD00878002807D005487844FCF7A0FF61
:103B7000002801D0002010BD0248784410BD00008C
:103B80005E090000560900000808A0F500114FEA80
:103B90003101704743004FEAD30C4FEA3C0C4340DD
:103BA0001FBF40070CF1605113F0FE4F70471CF02F
:103BB000006F03D100200CF0004170470CF000436F
:103BC00043EA507010B540EACC0000F0AAFA00BFFA
:103BD000000000924FEA0001FFF7D6BF4FF000410E
:103BE0004FF00000A1F500217047000090EA010F9E
:103BF00048BF81F0004100F11883421A3CBF801A8F
:103C000089184FEAD0524FF07F4C1CEA410FA2EBCB
:103C1000D15318BF9CEA026F00F03B804FF0004C7C
:103C20004CEA00204CEA012121FA03FC10EB0C0CB9
:103C30001ED202F1FF325FEA1C2040EBC25038BFB7
:103C400070471CF07F0F4FEA400C18BFBCF17F4F4C
:103C500038BF7047C3F12003994008BF20F001002E
:103C6000BCF17F4F38BF7047A0F1C04000F09FBA51
:103C70004FEA3C00000A40EBC25028BF1CF0FF0F87
:103C80004FEA400CE6D018BFBCF17F4F38BF7047F9
:103C9000EAE79CEA026F05D010EA5C0F08BF00F06B
:103CA0000040704710B500F03CFA00BF64FBBE3E18
:103CB000014800F02ABB00BF0000C07F401058BF81
:103CC000C0F14040491058BFC1F140418142EFF37B
:103CD000008070474FF47F0C1CEAD0121EBF1CEA14
:103CE000D11392EA0C0F93EA0C0F00F0858090EA52
:103CF000010F48BF42F4807240F4000C41F4000010
:103D00002CF07F4120F07F4000B58142A2EB0302FE
:103D10000FF2081CACEB504EC0F100009EF800E022
:103D20004FEA4E0E00FB0EFC38BF49004FEA2C1C38
:103D300002F5FA020CFB0EF34FEACE1E4FEA112CED
:103D40004FEAC1210EEB635E42EB22420EFB0CFCFC
:103D50004FEA1C5300FB03114FEA112C4FEA0131CB
:103D60000EFB0CFC4FEADC4C00FB0C11C14228BFDF
:103D700009184CEB03335DF804EB10EB410143EB06
:103D8000C250B2F57C0F38BF704729D512F0F00F42
:103D90001CBF00F1C04000F00040704700818283EA
:103DA0008485868788898B8C8D8E8F91929395964A
:103DB00097999A9C9D9FA0A2A3A5A7A8AAACAEB0D4
:103DC000B2B3B5B7B9BCBEC0C2C5C7C9CCCED1D4D9
:103DD000D7D9DCDFE2E6E9ECF0F3F7FAFE00000009
:103DE0004FEA400C0CF1807CBCF17E4F28BF70473D
:103DF000B0F1C04000F0DBB990EA010F0CEAD1133A
:103E000048BF42F48072624538BF634507D213F45D
:103E10007F0F16D080EA010000F00040704710B517
:103E200000F07FF9097EFC3E00F005B880EA010051
:103E300000F00040704780EA010000F0004000F010
:103E4000B6B912F47F0F04BF0248704780EA010040
:103E500000F0ADB90000C07F50EA010C00F1138002
:103E60001CF5000F58BFBCF5000F01D48842704705
:103E700007D710F5000F58BF11F5000F15D4884271
:103E80007047894270471CF5000F04D5BCF5000F40
:103E9000F7D5814270474FF0807C1CEB400F38BF54
:103EA0001CEB410F01D28142704710B500F039F987
:103EB000922449004FF000504FF08051FFF7FEBEB2
:103EC000C10DD1F19E0206DB4FEA002343F000430F
:103ED00023FA02F07047004207D54FEA4001B1F1E2
:103EE000FE4F02D24FF00000704710B500F019F9F4
:103EF00049922480002070476FEA2000704700003C
:103F000010F0004148BF4042B0FA80F310FA03F2CB
:103F1000C3F19D030BD051EAC35101EB12205306AC
:103F200038BF704700F1010008BF20F00100704762
:103F30004FF07E5209E011F0004204D54042C1F139
:103F4000000138BF491E42F07E520B0002F1706240
:103F500012BF20235FEA00017047B1FA81FCA3EB96
:103F60000C0301FA0CF120FA03FC02EBC352C3F17B
:103F7000200341EA0C0110FA03FC5CEA416C42EBBD
:103F8000112018BF5FF0806C28BF20F0010070473F
:103F9000B0FA80F310FA03F2C3F19D030AD0D905F9
:103FA00001EB1220530638BF704700F1010008BF33
:103FB00020F001007047000050EA010C00F113806E
:103FC0001CF5000F58BFBCF5000F01D488427047A4
:103FD00007D710F5000F58BF11F5000F15D4884210
:103FE0007047894270471CF5000F04D5BCF5000FDF
:103FF000F7D5814270474FF0807C1CEB400F38BFF3
:104000001CEB410F01D28142704710B500F089F8D6
:10401000922449004FF000504FF08051FFF74EBE00
:104020004FF47F0C1CEAD0121EBF1CEAD11392EA97
:104030000C0F93EA0C0F00F0478090EA010F48BF85
:1040400042F480724FF0004C4CEA00204CEA01210F
:1040500002EB0302A0FB0113A2F50002002918BF26
:1040600043F001035B0028BF4FEA330342EB2242D7
:104070005FEA132C4CEBC2502EBFBCEB436FB2F582
:104080007C0F70474FEA036CBCF1004F08BF20F073
:104090000100B2F57C0F38BF70470BD582F0FF02EC
:1040A00012F5803FC8BF704700F1C040D8BF00F094
:1040B0000040704700F5000C5FEA4C0C48BF7047A9
:1040C000B0F1C04000F073B890EA010F0CEAD113D0
:1040D00048BF42F48072624538BF634504D280EA2B
:1040E000010000F00040704710B500F01AF800BF62
:1040F0008900013E00F007B800F009B85FEA410C02
:104100005FEA1C6C08D080EA010000F050B85FEA5A
:10411000400C5FEA1C6CF6D14FF00040A0F5800027
:1041200070470EF1020E2EF0030E5EF8044B24428F
:1041300004D44FEA4102B2F17F4F11D84FEA400355
:10414000B3F17F4F0CD80ED14FEAD07CB2F17F4F44
:104150000CEB4C0C0CF1020C08BF4CEBD17C04E0D6
:104160004FF0080C01E04FEAD17C0CEB4C0324FA31
:1041700003F404F00704B4F1040C06D20EEB840C33
:10418000BDE810404CF0010C6047DFE80CF0070878
:1041900002024FF00040A0F5800010BD084642002A
:1041A00018BFD2F1807288BF00F0004010BDFF211F
:1041B00041EAD050C005704751EA000C00F113806D
:1041C0001CF5000F58BFBCF5000F01D481427047A9
:1041D00007D711F5000F58BF10F5000F15D4814215
:1041E0007047894270471CF5000F04D5BCF5000FDD
:1041F000F7D5884270474FF0807C1CEB410F38BFE9
:104200001CEB400F01D28842704780EA010081EA2E
:10421000000180EA0100FFF7F8BE000090EA010FFC
:1042200048BF81F000413FF5E8AC421A04D882F063
:104230000042A0EB020011444FEAD0524FF07F4CF5
:104240001CEA410FA2EBD15318BF9CEA026F4AD07F
:104250004FF0004C4CEA00204CEA012121FA03FC0B
:10426000B0EB0C0C0FD412F0FE0F36D05FEA4C000E
:104270001DD5001240EBC25038BF70471CF03F0FF5
:1042800018BF70470BE0A2F101025FEA1C2040EB6F
:10429000C25038BF70471CF07F0F18BF7047C3F182
:1042A0002003994014BF401E20F001007047800891
:1042B0004FEA122308BF7047B0FA80FCA2EB0C0251
:1042C000CCF1280C60FA0CF093EA122F04BF00EB3B
:1042D000C25070474FEAC3707047130A5FEADC10A0
:1042E00008BF7047F6E79CEA026F04D010EA5C0F43
:1042F00008BF0020704710B5FFF713FF40DFF63E00
:1043000081F000407047FCF751B90CF00F03092B06
:1043100008BF082000F051800A2B0BD0082B18BFD3
:10432000704708BF1CF0400F0AD04FF000004FF05C
:10433000000170471CF0400F18BF4FF0004070475D
:104340001CF0100F08D020F0704300F07F4242EACA
:10435000D3014FEA4370704700F0604021F07F4284
:1043600042EA000201F07F4040EA727070474FF06D
:10437000FF0212EAD0521CBF92F0FF038B42C2BF71
:10438000D14200EBC1507047002A0AD0002B0BD05D
:10439000002900F00040A4BF40F0FE4040F40000BF
:1043A000704700F00040704743024FF00B0C18BFFD
:1043B0004CF0806C7FF47CAC70471CF4801F11D0F3
:1043C0001CF4E02F03D06FEACC31490070474FF066
:1043D0004050EFF3008222F0704242EA000282F382
:1043E000008870474FF00000704701020203040587
:1043F000060708090A0B0C0D0E0F10100000000034
:104400000000000001020304060708090000000084
:104410000102030402400000000000A000000000B0
:1044200005400000000000C8000000000C40000033
:104430000000409C00000000194000000020BCBEAD
:104440000000000034400000BFC91B8E00000004C3
:10445000B5400000504BCFD06607E2CF010000000E
:104460006C4100003E8251AADFEEA734010000003B
:10447000D9420000DCB5A0E23A301F97FFFFFFFFF2
:10448000B4450000FD25A0C8E9A3C14FFFFFFFFF11
:10449000FF3F00000000008000000000FF3F000020
:1044A0000000008000000000E4440008000000203C
:1044B0006C00000028010008504500086C00002036
:1044C00094080000440100081C00000043000000A4
:1044D000F8FFFFFF0C0000000E0000000F000000BE
:1044E0002E0000000000000000000000000000009E
:1044F00001010000000000000000000000000000BA
:1045000000000000000000000000000000000000AB
:10451000000000000000000000000000000000009B
:10452000000000000000000000000000000000008B
:10453000000000000000000001000000100000006A
:104540000000000000127A000000000000000000DF
:04000005080000ED02
:00000001FF
