:020000040800F2
:100000007809002089010008CB320008ED2A000899
:10001000C93200087D0D00082D37000800000000DF
:10002000000000000000000000000000AF330008E6
:100030007F0D000800000000AD330008B133000858
:10004000A3010008A3010008A3010008A301000800
:10005000A3010008A3010008A3010008A3010008F0
:10006000A3010008890D0008A3010008A3010008EE
:10007000A3010008A3010008A3010008A3010008D0
:10008000A3010008A301000891020008A3010008D1
:10009000A3010008A3010008A3010008A3010008B0
:1000A000A3010008A3010008A3010008A3010008A0
:1000B000A3010008A3010008A3010008A301000890
:1000C000A3010008A3010008A3010008A301000880
:1000D000A3010008A3010008A3010008A301000870
:1000E000810D0008A3010008A301000800F002F838
:1000F00000F03AF80AA090E8000C82448344AAF188
:100100000107DA4501D100F02FF8AFF2090EBAE885
:100110000F0013F0010F18BFFB1A43F0010318473B
:10012000E867000008680000103A24BF78C878C16A
:10013000FAD8520724BF30C830C144BF04680C60ED
:10014000704700000023002400250026103A28BF35
:1001500078C1FBD8520728BF30C148BF0B60704739
:100160001FB51FBD10B510BD00F05CF81146FFF7BC
:10017000F7FF03F010FB00F07AF803B4FFF7F2FF8B
:1001800003BC00F07DF8000009488047094800479B
:10019000FEE7FEE7FEE7FEE7FEE7FEE7FEE7FEE737
:1001A000FEE7FEE704480549054A064B7047000094
:1001B0002D340008ED0000087803002078090020A5
:1001C00078050020780500204FF0000200B51346A6
:1001D00094469646203922BFA0E80C50A0E80C5067
:1001E000B1F12001BFF4F7AF090728BFA0E80C5018
:1001F00048BF0CC05DF804EB890028BF40F8042B11
:1002000008BF704748BF20F8022B11F0804F18BF7D
:1002100000F8012B704770477047704700487047DF
:10022000140300207546FFF7F9FFAE460500694646
:10023000534620F00700854618B020B5FFF7B2FFFF
:10024000BDE820404FF000064FF000074FF00008D7
:100250004FF0000B21F00701AC46ACE8C009ACE858
:10026000C009ACE8C009ACE8C0098D46704710B5BC
:100270000446AFF300802046BDE81040FFF77DBF85
:1002800001491820ABBEFEE72600020070470000BF
:10029000014800F062BF00008800002070B50446ED
:1002A00000688168C943C90717D1816821F001013D
:1002B000816001F0B1FA05460AE000BF01F0ACFA36
:1002C000401B022804D920688068C043C00706D0BC
:1002D00020688068C043C007F0D0002070BDA06ACD
:1002E00040F01000A062E06A40F00100E0620120EE
:1002F00070BD0000F8B500260446009600688168CD
:10030000C943C9072DD0816841F0010181601648B9
:1003100016490068B0FBF1F000E0401E0090002894
:10032000FBD101F079FA054616E000BF01F074FA3E
:10033000401B022810D920688068C043C0070BD03A
:10034000A06A40F01000A062E06A40F00100E062A4
:1003500084F824600120F8BD20688068C043C0078D
:10036000E4D10020F8BD00008400002040420F00CE
:1003700001484068704700000000002010B50448A4
:1003800002F096F9BDE81040024800F08BBE000074
:10039000540100208800002070B54FF4006111481E
:1003A00001F030FA054601F037FA0F4C21788D4202
:1003B00001D0606025706168401A142811D96078F6
:1003C00085420ED06570002D0BD100F011F9A07898
:1003D00028B10020A070BDE8704000F09DBB012056
:1003E000F8E770BD000801400C00002010B5164C65
:1003F00000234FF07E522146144803F0F3F9144ACB
:100400001449124803F002FA104800231A464FF02C
:100410008141503803F0E6F90C480F4A0F49503833
:1004200003F0F4F90948224600231146283803F066
:10043000D9F906480A4A0B49283803F0E7F9BDE81C
:10044000104000F0D5B8000000002041D00200208C
:10045000C3F59C40C3F59CC0B81E4941B81E49C1B4
:100460006666FB426666FBC22DE9FC5F01F0D4F9CB
:10047000514C6168884257D301F0CEF9401DA04627
:10048000606000F075F90546D4E902020E46281AAC
:1004900061EB020103F08AFF484903F0FFFF824647
:1004A0000021474803F09CF901A9684600F0BCF818
:1004B000DDE9000103F0D8FD4FF0FF3104F0D0F981
:1004C000074600F0B5F9DFF8FC90494603F0E6FF77
:1004D000044600F0A7F9494603F0E0FF81463A4997
:1004E00003F0DCFF394903F033FE0146384604F0DF
:1004F000D3F8374903F0D2FF0146314802F0E6FE57
:10050000DFF8D0B0594603F023FE03F08DF9014621
:100510002B48503803F064F92F48844202DC2F48FE
:10052000844203D900F064F8BDE8FC9F24482146CA
:10053000503802F0CBFE01462148283803F050F92C
:100540001F484946283802F0C1FE0746204603F0FE
:10055000CFF981462249384603F0A0FF07462046DE
:1005600003F010FA594603F099FF394604F094F865
:10057000494603F0EDFD4446D4E90212114319D077
:10058000184903F08BFF514603F088FF216803F000
:100590006BFD20601449884202DC1449884200D96E
:1005A0002160206800F03CFB206800F03FFBC4E9BC
:1005B0000256B9E72068EDE758000020BD378635C0
:1005C000D002002039FA8E3C7F6ABC3D8FC2F5BC58
:1005D0008FC2F53CC3F51C41F5B9B23FF5B9B2BFC6
:1005E000B6F37D3D5655054200002042000020C272
:1005F00010B50B4803F00DF90948503803F009F91C
:100600000748283803F005F9064C0020206000F068
:1006100007FB002000F00AFB0020C4E9020010BD27
:10062000D0020020580000202DE9F34F8DB0EFF3E9
:10063000108072B646498F69CE698A6ACB6A019387
:100640000A92D1F820904D6A0A6B4B6BCDE90623D4
:1006500091F900B091F901A080F3108800F088F8BA
:100660000A9A8046019B0C46B81A66EB030103F018
:10067000A0FE384903F012FF0190B8EB070064EBCD
:10068000060103F096FE334903F008FF06460146D3
:10069000019803F0CFFF00D2019EDDE90623B9EBFC
:1006A0000200089665EB030103F083FE294F3946EB
:1006B00003F0F4FE0646B8EB090064EB050103F015
:1006C00078FE394603F0EAFE04460146304603F060
:1006D000B1FF00D3264600241F4D204FDFF8808055
:1006E000BBF1020F2ED01BF1020F2BD0584603F0A6
:1006F00045FE089903F02CFD294603F029FD3946F3
:1007000003F026FD414603F0C9FE0D99C1F8000033
:10071000BAF1020F19D01AF1020F16D0504603F0A9
:100720002DFE314603F014FD294603F011FD394634
:1007300003F00EFD414603F0B1FE0E9908600FB0C4
:10074000BDE8F08F0D980460E2E70E980460F6E7CC
:1007500018000020BD3786350000B041F344A341A6
:10076000DB0FC94000221146501E01F0C1BB000042
:1007700070B5EFF3108072B60E4B0D494FF0E022CA
:100780001D780B6894691669F60303D50B682B4432
:100790000B60F6E780F3108850694FF47A72401CC2
:1007A000011B5143B1FBF0F00021E3FB020170BDDE
:1007B0008000002078000020F0B585B04FF48076EE
:1007C000002401200096CDE901040320134F03907B
:1007D0006946384600F026FF00250022314638469B
:1007E00001F015F804940498401C04903228FADBB8
:1007F00001223146384601F00AF804940498401C5E
:1008000004903228FADB6D1C092DE6DB044801F068
:1008100009F802F035FC05B0F0BD0000000C014005
:10082000B80000200148006970470000F80200206D
:100830000148C068704700006800002010B58021A2
:100840006B2000F057F9002826D1642000F0B8FD95
:1008500001216B2000F04EF900281DD10021192044
:1008600000F048F9002817D102211A2000F042F9BF
:10087000002811D100211C2000F03CF900280BD1E8
:1008800018211B2000F036F9002805D10221BDE80F
:1008900010401D2000F02EB910BD00002DE9F05FC2
:1008A00000F0BAFF434C616888427CD300F0B4FF8B
:1008B000401D606000F00EF9002878D13E4DA86917
:1008C00003F0A6FBDFF8F4A0DFF8F4B052465B4675
:1008D00003F0B6F906460F46A06803F099FB3246CE
:1008E0003B4603F0D7F803F0A3F88046286903F0ED
:1008F0008FFB52465B4603F0A3F906460F46E068BD
:1009000003F086FB32463B4603F0C4F803F090F850
:100910008146686903F07CFB52465B4603F090F920
:1009200006460F46206803F073FB32463B4603F051
:1009300085FA03F07DF80746D5E9010102F09CFF36
:10094000DFF880A0514603F0A9FDDFF87CB05946DE
:1009500003F0FEFB0646A968286802F08DFF5146A9
:1009600003F09CFD594603F0F3FBC4F80880DFF860
:100970005C8005464146304603F090FD144E8246A9
:100980003146484603F08AFD514603F06DFBE060B6
:100990004146284603F082FD05463146384603F0BD
:1009A0007DFD294600E002E003F05EFB2060BDE82B
:1009B000F09F000068000020F80200207B14AE4782
:1009C000E17A743F00003443DB0F4940300D433D72
:1009D0002DCF733F7FB50446684600F049F80028E4
:1009E0003ED1BDF9000003F0C9FC6FF00D052946AA
:1009F00003F036FF2060BDF9020003F0BFFC29467A
:100A000003F02EFF6060BDF9040003F0B7FC294637
:100A100003F026FFA060BDF9060003F0AFFC11490A
:100A200003F096FB104903F01FFBE060BDF90800DE
:100A300003F0A4FC0D4D294603F08AFB2061BDF9AB
:100A40000A0003F09BFC294603F082FB6061BDF9BC
:100A50000C0003F093FC294603F07AFBA061002010
:100A600004B070BD5CEFA6430000A841333383415E
:100A700010B588B0044603A80E2102238DE80B00B0
:100A80003B220123D021124800F0AAFF00281CD1EC
:100A9000BDF80C0040BA2080BDF80E0040BA60805E
:100AA000BDF8100040BAA080BDF8120040BAE08046
:100AB000BDF8140040BA2081BDF8160040BA60812C
:100AC000BDF8180040BAA081002008B010BD000099
:100AD000B800002010B50648FFF77CFF002806D0BC
:100AE000FFF76AFEBDE810400148FFF773BF10BD75
:100AF000F802002003B583B06423012204A98DE825
:100B00000E0013460246D021024801F097F805B0C6
:100B100000BD0000B800002010B500F08DF80448BA
:100B200002F077FE0248BDE81040283002F071BEA6
:100B30003002002070B50D4C4FF07C55002322464A
:100B400029460B4802F04EFE09480023224629465A
:100B5000283002F047FE0021064801F00FFFBDE8F3
:100B600070400021044801F009BF00000000E0408F
:100B7000300200200C0100209C0100202DE9FC41E6
:100B800000F04AFE234C2168884241D300F044FE25
:100B9000401C206001A96846FFF746FDFFF7E8FB0F
:100BA0000446B0F17E5F04DA002000F051F8002026
:100BB0002CE084F0004102460D46174802F026FE64
:100BC000154829462246283002F020FE1248009996
:100BD00002F07CFB064610480199283002F076FBB3
:100BE00005462146304603F0B3FA0C4F394603F070
:100BF00055FC06462146284603F0AAFA394603F07A
:100C00004DFC0446304600F023F8204600F06EF814
:100C1000BDE8FC8150000020300200200000C842E6
:100C20000146014802F0DCBD3002002001460148C7
:100C300002F0D6BD58020020044B08B1012200E0AA
:100C400000220221184600F0E2BD00000008014029
:100C50002DE9F0410446204D014603F03BFB01D055
:100C600000240BE0AC4201DD2C4607E01B48844227
:100C700001D9044604E014F1FF4F01D2012601E03E
:100C80004FF0FF3624F00040294603F061FA144982
:100C900003F004FC03F052FB04463000114D4FF406
:100CA00000774FF480664FF0010206D5394628469A
:100CB00000F0ADFD0022314605E03146284600F047
:100CC000A6FD00223946284600F0A1FD064800682E
:100CD0004463BDE8F08100000000C8420000C8C2C3
:100CE00000007A44000801400C01002070B5044661
:100CF0001D4D014603F0EEFA01D000240BE0AC429A
:100D000001DD2C4607E01948844201D9044604E07D
:100D100014F1FF4F01D2012601E04FF0FF3624F01D
:100D20000040294603F014FA114903F0B7FB03F021
:100D300005FB104D0446002E4FF0010206DD202178
:100D4000284600F064FD0022802105E0802128462D
:100D500000F05DFD00222021284600F058FD0648E5
:100D60000068446370BD00000000C8420000C8C2B3
:100D700000007A44000C01409C010020FEE770470F
:100D80004FF4804000F042BC082000F03FBC72B637
:100D9000FEE70000F8B50022009290F82440836836
:100DA0001646012C1CD0012480F82440D3B14D6894
:100DB0000B691F249D4226D81F055B1BC3F103034B
:100DC0000D6803EB83039D40A7F580172F439C40DC
:100DD000036844F440159C6BAC4327439F631EE0BB
:100DE0000220F8BD4B68012B05D0826A42F0200238
:100DF0008262012213E003689C6B0D686FF3150497
:100E000044EAC5340AE05B1BC3F1030303EB83032D
:100E10009C40036844F440159C6BAC439C6303689E
:100E20009C68E443E40706D09C6847F20105AC43A4
:100E30008D692C439C604B7D012B08D18B69B3F5E8
:100E4000E04F08D0826A42F02002826201220B7DCC
:100E5000012B06D00CE003685C6844F480645C609D
:100E6000F5E74B7DA3B1826A42F020028262012243
:100E70000B68072405680A2B10D3EF680A3B03EBC5
:100E800043039C40A7438C689C402743EF600EE0DF
:100E900003685C6844F480545C60E9E72F6903EB05
:100EA00043039C40A7438C689C4027432F610B68F9
:100EB000102B01D0112B04D103689C6844F400046A
:100EC0009C604B68012B10D0022B16D0032B0368BB
:100ED0001BD01C6ACD686FF30B042C431C620B689B
:100EE000102B19D0112B17D037E003685C69CD683F
:100EF0006FF30B042C435C61F1E703689C69CD68D8
:100F00006FF30B042C439C61E9E7DC69CD686FF358
:100F10000B042C43DC61E2E7124C0368A34217D1B7
:100F20009C68240219D49C6844F400049C600968FD
:100F3000102912D10C490D4B0968B1FBF3F101EBFB
:100F40008101490000E0491E00910029FBD104E025
:100F5000816A41F020018162012280F824601046FC
:100F6000F8BD0000002401408400002040420F0032
:100F700070B506460068384988426CD1012137486F
:100F800000F080F803F042FA354D294603F086FA66
:100F9000344903F0DDF8344C60606068A84200DD3D
:100FA000656061683148814200DA6060606830499C
:100FB000304D88420BDD01221021284600F027FC2D
:100FC00001222021284600F022FC01221FE0606857
:100FD0002949884206DD01221021284600F017FC2D
:100FE00001220FE060682549884201DD012204E00A
:100FF0006068234988420FDD00221021284600F056
:1010000006FC00222021284600F001FC002240219D
:10101000284600F0FCFB19E000F0FEFBA168411A35
:10102000642913D3A060207810B101280ED106E006
:1010300001227021284600F0EAFB012005E0002291
:101040007021284600F0E3FB0020207030684168E2
:1010500041F08001416070BD002401408800002003
:101060006666064100F07F45000000200000C04099
:10107000CDCCFC4000080140CDCCEC400000E0406D
:101080000000D0400068022909D0032905D00429B6
:1010900001D0C06B7047806C7047406C7047006C2B
:1010A0007047000070B5044690F8240001280DD068
:1010B000012084F824002046FFF71CF901004FF0BE
:1010C000000005D084F82400084670BD022070BDE1
:1010D000A26A42F201039A4342F48052A2621C4A7D
:1010E00025681C4B95421FD11E6816F4702F1BD02B
:1010F000A66A46F48016A662A66AF60500D4E062E7
:1011000084F824006FF0040028602068456845F0EA
:1011100080054560206844686405D5D48468C4F3BC
:101120000234072C04D009E0A66A26F48016E2E710
:10113000904208D11A6812F4702F04D0826842F4E9
:1011400000428260C0E7826842F40212F9E70000C0
:101150000028014004240140704770B5044600682F
:1011600006684568A90625D5B10723D5A16AC90631
:1011700003D4A16A41F40071A1628168C1F34241C4
:10118000072910D1217B71B9416821F0200141600C
:10119000A06A20F48070A062A06AC00403D4A06A90
:1011A00040F00100A0622046FFF7D6FF21686FF0F3
:1011B0001200086028062ED570072CD5A06AC0063C
:1011C00003D4A06A40F40050A06220688168C1F393
:1011D0000231072909D04168490515D48168C1F356
:1011E0004241072910D1217B71B9416821F080016A
:1011F0004160A06A20F48050A062A06AC00503D4B8
:10120000A06A40F00100A0622046FFF7B1FE21680D
:101210006FF00C00086068060CD5F0070AD0A06AD1
:1012200040F48030A062204600F094F821686FF00E
:101230000100086070BD00002DE9F0414FF000078B
:1012400004003D467ED0A06A002628B9E66284F8F4
:101250002460204600F080F82046FFF71FF8A16ABE
:10126000C90600D420B1A06A40F01000A06269E075
:10127000A16A21F4885141F00201A1626268E1692A
:10128000237B0A4347EA43010A43A1684FF480776E
:10129000B94209D0012907D05FF0000194F814C0C9
:1012A000BCF1010F02D00AE03946F7E7F3B1A36AB7
:1012B00043F02003A362E36A43F00103E36223687F
:1012C000D3F804C02CF4694C4CEA010CC3F804C0F8
:1012D00021688B68DFF870C003EA0C0313438B604E
:1012E000A168B9420BD0012909D00CE0DFF85CC03D
:1012F000A3690CEB43330B4343F40061DFE7218A1E
:101300000D05A5F580152168CB6A23F470032B43E6
:10131000CB62216889680E4B1940914208D1E66280
:10132000A16A21F0020141F00101A162BDE8F08152
:10133000A06A20F0020040F01000A062E06A40F0D5
:101340000100E0620120F1E7FDF7E1FF00E0FFFFAF
:10135000FE0E1FFF7047000000B585B00021009110
:1013600001910291039100681249884220D11248EC
:10137000816941F400718161816901F40071049116
:10138000816941F0080181618069694600F00800C7
:1013900004900120009003200190084800F042F9D9
:1013A00000220221122000F0A3FD122000F092FD85
:1013B00005B000BD0024014000100240000C0140B7
:1013C00070B5044600F028FA0546601C02D00448B7
:1013D0000078044400F020FA401BA042FAD370BD0C
:1013E000780000202DE9F04300233E4F0F2573E0E5
:1013F00001229A400A406DD023F00304E619D6F882
:1014000008809C074FEA147C05FA0CF909EA0804E5
:10141000DFF8D480404502D14FF0000816E0DFF835
:10142000CC80404502D14FF001080FE0DFF8C080CA
:10143000404502D14FF0020808E0DFF8B88040458F
:1014400002D14FF0030801E04FF0040808FA0CF84D
:10145000A04522D1284CD4F800C02CEA020CC4F8D4
:1014600000C0241DD4F800C02CEA020CC4F800C04F
:10147000214C0C34D4F800C02CEA020CC4F800C093
:10148000241FD4F800C02CEA020CC4F800C0D6F81F
:1014900008C02CEA090CC6F808C0FF2A01D8064685
:1014A00001E000F104064FEA830401D9A4F120040D
:1014B000D6F800C005FA04F82CEA080C4FF004082E
:1014C00008FA04F84CEA080CC6F800C0C46824EA1C
:1014D0000204C46003F1010331FA03F288D1BDE8CC
:1014E000F08300000000014000080140000C0140B2
:1014F0000010014000140140000401402DE9F047B4
:1015000001264FF4804A3F4DF71E3F4C4FF0FF3805
:101510004FF00209504539D1A169E069A162E0624A
:10152000FFF726F9A061E1615146AA46284600F07E
:1015300069F90546F103504600F064F9012D01D028
:1015400015B103E088B101E001280ED0A068E16880
:10155000401C41F10001A060E16094F90000002806
:1015600012DA48462070BDE8F087A068E168401EA6
:1015700041F1FF31A060E16094F90000002801DD35
:101580002770F0E74046EDE72670ECE70828EAD13F
:10159000206A616A20636163FFF7EAF82062616292
:1015A0000821AA46284600F02DF90546102150468C
:1015B00000F028F9012D01D015B103E078B101E068
:1015C00001280CD020696169401E41F1FF31206182
:1015D000616194F90100002810DD6770C3E720699C
:1015E0006169401C41F100012061616194F90100D1
:1015F000002801DA484602E06670B4E740466070B1
:10160000B1E70000000C014018000020044910B5AB
:101610000A68024202D00860FFF770FF10BD0000A8
:10162000140401402DE9F84FDFF8B8910024A9F126
:10163000040B23460F2709F1040AABF1040EC9E09D
:101640000125A5402A40AA427DD1674ED1F804C0A9
:10165000ACEB0608B44532D014DCBCF1030F3AD031
:1016600009DCBCF1000F2AD0BCF1010F1CD0BCF189
:10167000020F31D11DE0BCF1110F17D0BCF1120FD8
:101680002AD119E0B8F5881F19D006DCB8F5803FDB
:1016900015D0B8F5801F1FD111E0B8F5001F0ED08E
:1016A000B8F5041F18D10AE0CB6815E0CB681B1D04
:1016B00012E0CB6808330FE0CB680C330CE08B688A
:1016C0002BB1012B4FF0080303D0456104E0042344
:1016D00002E0056100E00023FF2A01D8064601E090
:1016E00000F104064FEA840501D9A5F12005D6F8DA
:1016F000008007FA05FC28EA0C0803FA05F548EA19
:101700000508C6F800804D68ED0062D5374DAE691A
:1017100046F00106AE61AD6924F0030605F001054F
:101720000095334D06EB050CDCF80850A607360F84
:1017300007FA06F825EA0805DFF8B880404503D126
:101740004FF0000817E044E0DFF8AC80404502D1DC
:101750004FF001080FE0DFF8A480404502D14FF0C0
:10176000020808E0DFF89880404502D14FF00308F6
:1017700001E04FF0040808FA06F848EA0508CCF83A
:1017800008804D68D9F80060ED024D4601D516433A
:1017900000E096432E604D68DAF80060AD025546D1
:1017A00001D5164300E096432E604D68DBF80060DB
:1017B000AD035D4601D5164300E096432E604D68AB
:1017C000DEF80060ED03754601D5164300E0964350
:1017D0002E60641C0D682A46E5407FF431AFBDE8F9
:1017E000F88F0000080401400000111000100240B2
:1017F0000000014000080140000C014000100140C1
:10180000001401408068084000D0012070470AB1F0
:10181000016170470904FBE70148806870470000D8
:101820007800002010B5040013D0242084F83D0077
:101830002068016821F001010160204600F096FA5D
:101840000020206484F83D0044F8300FA07320731A
:1018500010BD012010BD000070B5040025D094F823
:101860003D00002520B984F83C50204600F09AFA4B
:10187000242084F83D002068016821F00101016006
:101880002068016841F4004101602068016821F48A
:101890000041016000F06AFC4D4A6168914201D844
:1018A0004C4900E04C49884201D2012070BD4B49AF
:1018B0002368B0FBF1F15E6826F03F060E435E60E0
:1018C0006368934206D94FF4967359434FF47A7381
:1018D000B1FBF3F12368491C1E6A26F03F06314331
:1018E00019626168914210D84900401EB0FBF1F2C4
:1018F000521CC2F30B02042A01D2042022E0B0FBE6
:10190000F1F0401CC0F30B001CE0A268F2B301EB45
:10191000C10303EB0116431EB3FBF6F35B1C43F458
:1019200080431B0549D092B301EBC10202EB0111C8
:10193000401EB0FBF1F0401CC0F30B0040F48040AF
:1019400040F400402168CA694CF6FF739A43104383
:10195000C861D4E9071001432068026822F0C00280
:1019600011430160D4E9030101432068826848F211
:10197000FF339A4311438160D4E90501084321688C
:10198000CA6822F0FF021043C86001E00EE016E0D2
:101990002068016841F0010101602564202084F87D
:1019A0003D00256384F83E50002070BD01EB4106E8
:1019B000431EB3FBF6F35B1CB3E70120C2E701EB68
:1019C0004101401EB0FBF1F0401CC0F30B00B7E733
:1019D000A086010080841E0000093D0040420F00E7
:1019E0002DE9FF4F83B00025DDE910799A46934633
:1019F0000446DDF848800095FFF70EFF064694F890
:101A00003D0020287CD119230122884920460096D8
:101A100001F082F90028F5D194F83C0001286FD03C
:101A2000012084F83C0020680168C90703D10168DF
:101A300041F0010101602068016821F4006101604A
:101A4000222084F83D00402084F83E00256467622F
:101A5000A4F82A90608D20857548E062CDE9008663
:101A600053465A462046049901F058F800287CD184
:101A7000208DDFF8C091202768B1012814D00228FA
:101A8000206801681ED041F48061016020684169CE
:101A900080690090BCE0206841698169009101681B
:101AA00041F400710160B3E02068016821F48061B5
:101AB000016072B62068416981690091016841F452
:101AC00000710AE041F40061016072B6206841696A
:101AD00081690091016821F48061016062B697E03C
:101AE000032865D801280CD0022843464FF0000295
:101AF0004946204600960BD001F00EF9A8BB0CE039
:101B000091E032464146204601F0ACF968BB72E0F4
:101B100001F002F948BB72B633E02068016821F495
:101B20008061016072B620680069616A0870606A4D
:101B3000401C6062208D401E2085608D401E6085A7
:101B40003D4846F2A8110068B0FBF1F0C0EBC000C0
:101B500000EB80000090401E009007D02068406994
:101B6000C04340070DD50098F5E727E044F8305F03
:101B70006773A573206940F02000206162B6257369
:101B80001CE02068016841F4007101602068006970
:101B9000616A0870606A401C6062218D491E21855F
:101BA000618D491E618562B621680969017026E070
:101BB00032464146204601F055F918B1012007B0E0
:101BC000BDE8F08F20680069616A0870606A401C97
:101BD0006062208D401E81B22185608D401E60852F
:101BE00020684269D243520712D4032903D1016805
:101BF00021F48061016020680069616A0870606A90
:101C0000401C6062208D401E2085608D401E6085D6
:101C1000208D00287FF464AF84F83D7084F83E5036
:101C200084F83C50CBE70220C9E700000200100016
:101C30000000FFFF04000100840000202DE9FF4F99
:101C400083B09A46DDE9119793460446DDF840805B
:101C5000FFF7E2FD054694F83D0020287FD11923C7
:101C6000012240492046009501F056F8002876D11F
:101C700094F83C00012872D0012084F83C002068D0
:101C80000168C90703D1016841F0010101602068C2
:101C9000016821F400610160212084F83D004020AA
:101CA00084F83E0000262664C4F82480A4F82A9014
:101CB000608D20852C48E062CDE9007553465A4678
:101CC0002046049900F0A8FF70B930E02A46394652
:101CD000204601F0FFF858B1206C042804D1206898
:101CE000016841F400710160012007B0BDE8F08F88
:101CF000606A216800780861606A401C6062218D1A
:101D0000491E89B22185628D521E628522685369FF
:101D1000DB435B070BD469B100781061606A401C3B
:101D20006062208D401E2085608D401E6085208D64
:101D30000028CBD12A463946204600F0C1FF0028B2
:101D4000CAD154F83D0B016841F4007101602020B4
:101D500004F81E09E67766770020C6E7FFE7022051
:101D6000C3E70000020010000000FFFF10B500688C
:101D7000094988420FD10948C16921F40011C161A4
:101D8000074C81152046FFF72DFB61152046BDE865
:101D90001040FFF727BB10BD005400400010024068
:101DA000000C014010B586B0002100910191029114
:101DB000039100681349884222D1134CA06940F076
:101DC0000800A061A069694600F0080004904FF483
:101DD0004070009012200190032003900B48FFF701
:101DE00021FC0B48416841F0E06141F00201416093
:101DF000E06940F40010E061E06900F40010049034
:101E000006B010BD0054004000100240000C01401C
:101E1000000001404FF0E0200069C00305D50348F1
:101E20000168034A12781144016070478000002065
:101E300078000020074810B5016841F010010160EA
:101E4000032000F075F80F2000F006F800F024F8E9
:101E5000002010BD0020024070B50D4D04464FF427
:101E60007A712878B1FBF0F00A490968B1FBF0F00B
:101E700000F052FB48B9102C07D200222146501E18
:101E800000F036F800206C6070BD012070BD0000CD
:101E900078000020840000200C4808B5816941F0DA
:101EA00001018161816901F001010091C16941F085
:101EB0008051C161C06900F08050009004484168C1
:101EC00021F0E06141F00071416008BD0010024066
:101ED00000000140002809DB00F01F0201219140B1
:101EE0004009800000F1E020C0F8001170470000B8
:101EF000F0B40E4B1B680C46C3F30223C3F1070575
:101F0000042D00D90425191D072901D2002300E062
:101F1000DB1E012606FA05F1491E214099409E402C
:101F2000761E16403143F0BC01F001BC0CED00E020
:101F3000064900F0070208684FF6FF03184040EA20
:101F40000220034A10430860704700000CED00E0D7
:101F50000000FA052DE9F84305460078354CC00726
:101F600054D0E0690026C00008D4E06940F08050F9
:101F7000E061E069012600F0805000902E48016881
:101F8000C90512D40168804641F480710160FFF7F1
:101F900043FC074605E000BFFFF73EFCC01B64287A
:101FA00023D8D8F80000C005F6D5206A10F4407098
:101FB00021D0A98801F4407181421CD0206A1F49B8
:101FC000012220F440700A6000220A602062C007EB
:101FD00011D0FFF721FC074641F2883808E000BF26
:101FE000FFF71AFCC11B414502D90320BDE8F88365
:101FF000206A8007F4D5206A696820F4407008439D
:1020000020621EB1E06920F08050E06128788007EE
:1020100005D56068A96820F44040084360602878CE
:10202000C00605D56068E96820F480000843606058
:102030000020DBE7001002400070004040044242F4
:102040002DE9F0470F46050061D0434E306800F09F
:102050000700B84209D2306820F0070038433060EA
:10206000306800F00700B84251D128683B4C810726
:1020700012D5400703D5606840F4E06060602878BE
:10208000000703D5606840F4605060606068A9682C
:1020900020F0F000084360602878C00728D0686806
:1020A000012810D02168022810D0890700292EDAD3
:1020B000616821F0030101436160FFF7ADFB8046D9
:1020C00041F288390DE021688903EFE78901EDE7E6
:1020D000FFF7A2FBA0EB0801494502D90320BDE8A8
:1020E000F0876068696800F00C00B0EB810FEFD1F9
:1020F000306800F00700B8420BD9306820F00700C4
:1021000038433060306800F00700B84201D0012049
:10211000E5E72878400705D56068E96820F4E060C5
:10212000084360602878000706D56068296920F4B4
:10213000605040EAC100606000F038F86168084A09
:10214000C1F30311515CC8400649086006480068A5
:10215000FFF782FE0020C2E700200240001002408C
:10216000EE680008840000207C0000200448054937
:1021700000684968044AC1F30221515CC8407047B5
:102180008400002000100240FE6800080448054951
:1021900000684968044AC1F3C221515CC8407047D5
:1021A0008400002000100240FE6800080E4A5168BA
:1021B0000E4801F00C03042B11D0082B0FD10C4852
:1021C000C1F38343C903C05C0AD55168084AC1F30F
:1021D0004041921E515C054A5043B0FBF1F07047FC
:1021E00004494843704700000010024000127A0082
:1021F000DE68000800093D002DE9F84F040070D0AA
:102200002078C04DC00749D06868C0F3810001281C
:1022100007D06868C0F38100022809D16868C0034C
:1022200006D52868800339D560680028E7D035E0F6
:102230006068B0F5803F0BD010B1B0F5A02F11D081
:10224000286820F480302860286820F4802002E08C
:10225000286840F480302860606890B1FFF7DCFAAD
:1022600006460AE0286840F480202860F0E700BFB6
:10227000FFF7D2FA801B642873D828688003F7D54B
:102280000CE0FFF7C9FA064605E000BFFFF7C4FA05
:10229000801B6428F0D828688003F7D420789A4EF1
:1022A00080074FF001094FF0000839D5686810F039
:1022B0000C0F07D06868C0F38100022809D1686854
:1022C000C00306D42868800714D52069012808D1E6
:1022D00010E02069B0B1C6F80090FFF79DFA0746FC
:1022E00005E00AE1FFF798FAC01B0228C4D8286865
:1022F0008007F7D52868616920F0F80040EAC1003E
:1023000028600DE0C6F80080FFF786FA074604E073
:10231000FFF782FAC01B022823D828688007F7D469
:10232000207800072CD57948A169D9B1C0F8009070
:10233000FFF772FA074604E0FFF76EFAC01B0228A7
:102340000FD8686A8007F7D571484FF4FA510068D2
:10235000B0FBF1F0009000BF0098411E0091FAD24E
:102360000EE080E0C0F80080FFF756FA074604E070
:10237000FFF752FAC01B022875D8686A8007F7D4A5
:102380002078400760D5E8690027C00008D4E869D4
:1023900040F08050E861E869012700F0805000902B
:1023A0005C480168C90513D40168834641F4807113
:1023B0000160FFF731FA824606E000BFFFF72CFA12
:1023C000A0EB0A0064284ED8DBF80000C005F5D564
:1023D000E06801280AD008B1052813D0286A20F047
:1023E00001002862286A20F0040002E0286A40F018
:1023F00001002862E06841F2883B98B1FFF70CFACF
:1024000082460BE0286A40F004002862EEE700BF35
:10241000FFF702FAA0EB0A0159455AD8286A80074B
:10242000F6D50CE0FFF7F8F9824605E0FFF7F4F97E
:10243000A0EB0A0159454CD8286A8007F6D41FB191
:10244000E86920F08050E861E06988B36968C1F309
:102450008101022944D00228C6F8608004D0FFF729
:10246000DBF9044638E034E0FFF7D6F9074604E02C
:10247000FFF7D2F9C01B02282BD828688001F7D4B7
:10248000206AB0F5803F05D16868A16820F400306B
:1024900008436860D4E908010843696821F47411AD
:1024A00008436860C6F86090FFF7B6F9044606E096
:1024B00025E000BFFFF7B0F9001B022809D8286803
:1024C0008001F7D51BE000BFFFF7A6F9001B02282B
:1024D00002D90320BDE8F88F28688001F4D40EE00B
:1024E0000128F7D06868226A00F48031914204D153
:1024F000616A00F47010884201D00120EAE70020F0
:10250000E8E700000010024000004242800442421E
:10251000840000200070004010B5401EB0F1807FA4
:1025200001D3012010BD4FF0E02460610F2160173E
:1025300001F0FDF80020A06107202061002010BDFF
:1025400010B590F83C20012A22D0012280F83C20CE
:10255000CA688C6822F4407222434C6822F480627C
:1025600022430C6822F4006222430C6922F4805258
:1025700022434C6922F400522243C969002322F409
:1025800080420A4301684A6480F83C30002010BD54
:10259000022010BD70B590F83C20012A26D00124FD
:1025A00080F83C40022280F83D2003685A689D680C
:1025B00022F070060A6832435A600D4B02689A4254
:1025C00008D0B2F1804F05D00A4B9A4202D00A4B94
:1025D0009A4204D1496825F080031943916080F83C
:1025E0003D40002180F83C10084670BD022070BDBF
:1025F000002C0140000400400008004010B5040019
:1026000003D094F83D0010B107E0012010BD002078
:1026100084F83C00204600F01FF8022084F83D00BA
:10262000211D206800F004FF012084F8460084F892
:102630003E0084F83F0084F8400084F8410084F8AC
:10264000420084F8430084F8440084F8450084F88C
:102650003D00002010BD000008B5124A0168124874
:10266000914207D1816941F400618161806900F480
:10267000006014E0B1F1804F0AD00C4A91420FD1B2
:10268000C16941F00401C161C06900F0040006E0C5
:10269000C16941F00101C161C06900F00100009011
:1026A00008BD0000002C014000100240000800405E
:1026B00090F83D10012901D001207047022180F8D7
:1026C0003D1000680B49884208D0B0F1804F05D01A
:1026D0000949884202D00949884204D1816801F041
:1026E0000701062903D0016841F0010101600020C3
:1026F00070470000002C014000040040000800402A
:1027000070B5044690F83C000025012817D001263A
:1027100084F83C60022084F83D002068826822F042
:10272000770222F47F4282600868502838D00DDC9E
:1027300020284FD005DC90B3102811D14AE00220A8
:1027400070BD302846D040280AD13BE060282FD009
:1027500070280DD0B0F5805F03D0B0F5005F12D0C7
:10276000012584F83D60002084F83C00284670BDB7
:10277000CB68D1E90121206800F0A3FE20688168C0
:1027800041F0770109E0CB68D1E90121206800F030
:1027900098FE2068816841F480418160E1E719E09A
:1027A000CA684968206800F041FF5021206806E0AF
:1027B000CA684968206800F04AFF6021206800F07C
:1027C0008AFECEE7CA684968206800F02FFF4021E2
:1027D0002068F4E7226801461046F0E700B585B0AE
:1027E00000210091019102910391154B0268154857
:1027F00002219A420ED1826942F00402826180690C
:10280000039100F004000490C801CDE9000169467D
:102810000D4810E00D4B9A420FD1826942F0080238
:1028200082618069039100F0080004904020CDE9A6
:10283000000169460648FEF7F5FE05B000BD000040
:10284000002C014000100240000801400008004038
:10285000000C014070B5044690F83C0000260D467F
:1028600001280FD0012084F83C006AB1042A1DD051
:10287000082A2FD00C2A3FD00126002084F83C00E3
:10288000304670BD022070BD206800F02DFE20682B
:10289000816941F0080181612068816921F00401AA
:1028A0008161206881692A69114311E0206800F084
:1028B00043FE2068816941F400618161206881697B
:1028C00021F480618161206881692A6941EA0221DD
:1028D0008161D2E7206800F05BFE2068C16941F0A9
:1028E0000801C1612068C16921F00401C16120684B
:1028F000C1692A69114311E0206800F075FE206863
:10290000C16941F40061C1612068C16921F480613D
:10291000C1612068C1692A6941EA0221C161ACE74D
:1029200010B5040003D094F83D0010B107E0012079
:1029300010BD002084F83C00204600F01EF8022064
:1029400084F83D00211D206800F072FD012084F80C
:10295000460084F83E0084F83F0084F8400084F884
:10296000410084F8420084F8430084F8440084F86D
:10297000450084F83D00002010BD704710B50446A6
:10298000022249B104290ED0082913D094F841003D
:10299000012816D0012010BD94F83E000128F9D17D
:1029A00084F83E200FE094F83F000128F2D184F82B
:1029B0003F2008E094F840000128EBD184F8402043
:1029C00001E084F841200122206800F06DFD0F49EC
:1029D0002068884203D1426C42F40042426420687D
:1029E000884208D0B0F1804F05D00949884202D012
:1029F0000849884204D1816801F00701062903D003
:102A0000016841F001010160002010BD002C01406F
:102A1000000400400008004070B5040004D094F8A1
:102A20004100002510B106E0012070BD84F840503F
:102A3000204600F023F8242084F841002068C16873
:102A400021F40051C160204600F014FE20680169A5
:102A500021F4904101612068416921F02A0141611E
:102A60002068C16841F40051C1606564202084F889
:102A7000410084F842006563002070BD30B585B028
:102A8000002400940194029403940068144988423D
:102A900023D11448C16941F40031C161C16901F415
:102AA00000310491816941F00401816180690E4D1A
:102AB00000F0040004900420009002200190032004
:102AC000039069462846FEF7ADFD0820CDE90004D5
:102AD000694628460294FEF7A5FD05B030BD00000A
:102AE000004400400010024000080140FEE7016879
:102AF0004A69D24352050FD46FF480624A610021C3
:102B000040F8301F202242738173026942F00402B0
:102B10000261017301207047002070472DE9F84FD2
:102B20000446006889460B9D01689846174641F4A3
:102B3000806101602068016841F480710160009546
:102B40004FF0011B0022594620460A9B00F0E4F892
:102B50004FF4007A40B120680068C00501D5C4F880
:102B600040A00320BDE8F88F216809F0FE0008614D
:102B70002B46284920460A9A00F016F9F0BB206837
:102B80004169806900902A4620460A9900F0A2F91E
:102B900040B1206C04283AD12068016841F40071EA
:102BA000016034E0FEB2B8F1010F09D02168380AA3
:102BB00008612A4620460A9900F08CF90028E8D1DD
:102BC000206806612A4620460A9900F083F9002809
:102BD000DFD12068016841F4807101600095002216
:102BE000594620460A9B00F097F80028B3D1216887
:102BF00009F0FF0040F00100086100E007E02B460B
:102C0000044920460A9A00F0CFF80028AAD00120F3
:102C1000A8E70000020001002DE9F843044600681F
:102C20000D46DDE9089701689846164641F4807123
:102C300001604B4600224FF001112046009700F042
:102C40006BF848B120680068C00502D54FF40070E9
:102C500020640320BDE8F883216805F0FE000861C8
:102C60003B464A461549204600F09EF888B9206840
:102C70004169806900903A464946204600F02AF9A9
:102C800048B1206C042804D12068016841F4007127
:102C900001600120DEE7F5B2B8F1010F09D021682B
:102CA000300A08613A464946204600F013F90028E8
:102CB000E7D1206805610020CCE700000200010098
:102CC00070B516460D4604461EE02046FFF70FFF7E
:102CD00008B1012070BD681C16D0FEF79DFD801B59
:102CE000A84200D885B920684069C04340070BD589
:102CF000002044F8300F20216173A073216941F056
:102D0000200121612073E4E720684069C043400747
:102D1000DBD4002070BD00002DE9F047984617462F
:102D20000D460446C1F30746DDF820902AE000BFB7
:102D3000B8F1FF3F26D0FEF76FFDA0EB090141453A
:102D400002D8B8F1000F1DD12068012E16D080697D
:102D500025EA00000004000C12D00020B84211D176
:102D6000002044F8300F20216173A073216941F0E5
:102D70002001216120730120BDE8F0874069E7E769
:102D80000120EBE72068012E0AD0806925EA0000C7
:102D90000004000C06D00020B842C9D00020EBE7A8
:102DA0004069F3E70120F7E72DE9F047984616461A
:102DB0000D4604464FF000094FF0200AC1F30747C3
:102DC00023E020684069C043400515D420680168AD
:102DD00041F40071016021686FF480604861C4F8BB
:102DE000309084F83DA084F83E90216C41F00401BD
:102DF000216484F83C9021E0701C06D0FEF70CFDA5
:102E0000A0EB0800B04203D816B1012F1FD021E07B
:102E10002068012F15D0806925EA00000004000C0D
:102E200018D000BF44F8309F84F80DA084F80E90AD
:102E3000216941F02001216184F80C900120BDE856
:102E4000F087406925EA00000004000CEAD1206800
:102E5000406901E02068806925EA00000004000C58
:102E6000AFD1ECE72DE9F041002590460E4604462F
:102E7000202728E04069C043C0060CD454F8301B1A
:102E80006FF01000486144F810596777A577206A01
:102E90002062257714E0FEF7BFFCA0EB0800B042EB
:102EA00000D886B920684069C04340060BD544F875
:102EB000305F6773A573206940F02000206125739F
:102EC0000120BDE8F08120684169C9434906D1D499
:102ED0000020F6E770B516460D4604461EE0204673
:102EE000FFF705FE08B1012070BD681C16D0FEF783
:102EF00093FC801BA84200D885B920684069C04374
:102F000000060BD5002044F8300F20216173A07318
:102F1000216941F0200121612073E4E720684069C4
:102F2000C0430006DBD4002070BD000030B587B080
:102F30001C216846FDF748F91448002412498460B2
:102F4000016004730475012505614FF4602144603C
:102F5000C161FEF771F908B1FDF719FF0820CDE94D
:102F60000005800206908DF81540049502958DF8B5
:102F70001440694605480394FDF70CFF002801D072
:102F8000FDF705FF07B030BD002401408800002098
:102F90002DE9F04186B00024354800940194029454
:102FA0000394816941F020018161816901F0200170
:102FB0000491816941F004018161816901F004019A
:102FC0000491816941F0080181618069294F00F015
:102FD000080040F272650490002229463846FEF748
:102FE00016FCDFF894800022A0214046FEF70FFC7B
:102FF0000095022601250396CDE90154694638461D
:10300000FEF710FB44F2080000901C48CDE90105D2
:1030100069464046FEF706FB48F210008DE8310095
:1030200069464046FEF7FEFAE8028DE8310069463F
:103030003846FEF7F7FAA020CDE90005CDE90246B3
:1030400069464046FEF7EEFA002211460920FEF7D7
:103050004FFF0920FEF73EFF002211462820FEF711
:1030600047FF2820FEF736FF06B0BDE8F0810000DC
:103070000010024000080140000C01400000311027
:103080000D4810B50B4901600C49416000214FF417
:1030900080428160C0E9031241618161C1610162C6
:1030A000FEF7DAFB002803D0BDE81040FDF76FBE45
:1030B00010BD000000540040B8000020801A060037
:1030C00010B596B000240F94109411941294139498
:1030D0001C2108A81494FDF777F820216846FDF715
:1030E00073F829482749C0E9001440F2E731C0E9E4
:1030F000024180210461C0E90541FFF77FFA08B170
:10310000FDF745FE4FF480500F900FA91E48FFF7C2
:10311000F7FA08B1FDF73BFE1B48FFF701FC08B1C9
:10312000FDF735FE139413A917481494FFF732FAEC
:1031300008B1FDF72CFE6020CDE9080404200A94B4
:10314000CDE90B400D94002208A90F480E94FFF71B
:1031500081FB08B1FDF71BFE00944FF40050CDE950
:103160000440029401940394694607480794FFF7CA
:10317000E7F908B1FDF70BFE0348FFF72FFB16B088
:1031800010BD0000002C01400C01002010B586B0DD
:1031900000241748009401940294039404944FF07F
:1031A0008041059401604721C0E9011442F20F718A
:1031B000C0E903148461FFF721FA08B1FDF7E7FDC8
:1031C0004FF48050009069460948FFF799FA08B11A
:1031D000FDF7DDFD2020CDE9040404A90448FFF734
:1031E000D9F9002801D0FDF7D2FD06B010BD0000CE
:1031F0005401002010B58EB000240794089409945F
:103200000A940B941C2168460C94FCF7DDFF1F48C0
:103210001D49C0E9001440F2E731C0E902418021B4
:1032200004618161FFF7EAF908B1FDF7B0FD4FF4E1
:103230008050079007A91548FFF762FA08B1FDF71B
:10324000A6FD1248FFF76CFB08B1FDF7A0FD0B943B
:103250000BA90E480C94FFF79DF908B1FDF797FDF7
:103260006020CDE900040420049000226946029405
:103270000648FFF7EFFA08B1FDF789FD0348FFF7AD
:10328000ADFA0EB010BD0000000800409C01002007
:103290000C4810B50A4901604FF4E131416000214A
:1032A00081600C22C160C0E904128161C161FFF735
:1032B000B3FB002803D0BDE81040FDF768BD10BD8A
:1032C00000440040E4010020FEE7FEE72DE9F84F4E
:1032D0000446C06801F0E0F98346216801F0DEF899
:1032E0000090FEF799FA0546D4E904600027AA1B6E
:1032F000804667EB0001104601F058F82A4900F0BB
:1033000027FF8246B94656EA080631D0A66816F06D
:10331000FF4F0AD05846A16901F0BEF9314601F0CD
:10332000BDF8514600F014FF8146666816F0FF4F65
:103330001ED05846A16900F097FE314601F0AEF864
:10334000514601F0ABF84FF0FF3101F089FAE16925
:1033500000F08AFEE061216A01F06CF901D2206A76
:10336000E061616AE06901F065F801D2606AE061DC
:10337000E169009800F078FE494600F075FE0646C7
:1033800004F1100080E8A0083046216A01F052F9EB
:1033900000D2266A616A304601F04CF800D2666AB3
:1033A0003046BDE8F88F000000007A44704770474F
:1033B000FEF730BD30B593B028216846FCF704FF16
:1033C00014210AA8FCF700FF002501200F95109595
:1033D0001195010412958DE8230004904FF4E0103C
:1033E000CDE90810022407946846FEF705FF08B1EE
:1033F00072B6FEE70AA90F2081E831004FF4806021
:10340000CDE90D0502210AA8FEF71AFE08B172B631
:10341000FEE74FF4004011900F940FA8FEF79AFDBD
:10342000002801D072B6FEE713B030BD704700002F
:10343000F0B50268194B1A4C1A4D4FF0804798426C
:1034400005D0B84203D0A04201D0A84203D122F057
:1034500070064A683243984205D0B84203D0A04271
:1034600001D0A84203D122F44074CA6822434C69B7
:1034700022F08002224302608A68C2620A68826285
:10348000984201D109690163012141610169C907BC
:1034900003D0016921F001010161F0BD002C014060
:1034A000000400400008004010B501F01F03012196
:1034B000046A99408C430462016A9A401143016294
:1034C00010BD10B5846842EA032224F47F440A4305
:1034D0002243826010BD826822F070020A4342F0EB
:1034E000070181607047000030B5036A026A22F06C
:1034F000010202624268846924F073050C682C435F
:1035000023F002058B682B430A4DA8420BD123F010
:103510000805CB6822F440722B434D6923F0040365
:1035200015438A692A4342608461496841630362A2
:1035300030BD0000002C014030B5026A036A23F060
:1035400010030362436884690D6824F4E64444EA86
:1035500005248D6822F0200242EA05120B4DA84294
:103560000ED1CD6822F0800242EA05124D6923F4A3
:10357000406343EA85038D6922F0400243EA8503F4
:103580004360846149688163026230BD002C014060
:1035900030B5036A026A22F4807202624268C4692A
:1035A00023F4007324F073050C682C438D6843EA00
:1035B00005230C4DA8420ED1CD6823F4006343EAE5
:1035C00005234D6922F4405242EA05128D6923F425
:1035D000806342EA05124260C4614968C1630362C4
:1035E00030BD0000002C014030B5046A026A22F4AC
:1035F000805202624268C3690D6823F4E64343EADD
:1036000005238D6824F4005444EA0534064DA8428D
:1036100004D14D6922F4804242EA85124260C361BE
:1036200049680164046230BD002C014010B5036A92
:10363000046A24F001040462846924F0F00444EA7A
:10364000021423F00A020A438461026210BD10B51D
:10365000036A046A24F010040462846923F0A0035E
:1036600024F4704444EA023243EA011182610162A7
:1036700010BD000070B5044600680169E26821F4DD
:103680004051114301612169A06808436169084301
:103690002168CA6841F20C639A430243CA602068F9
:1036A0004169A26921F44071114341611E492068BA
:1036B000884202D1FEF76AFD01E0FEF757FD00EBFC
:1036C000C00101EB0012606864218000B2FBF0F3DE
:1036D000B3FBF1F36FF018067343B2FBF0F5B2FBE6
:1036E000F0F605EB8305322303EB0515B5FBF1F589
:1036F000B6FBF1F605F0F00505EB0615B2FBF0F6AA
:10370000B2FBF0F0B0FBF1F06FF01802504306EBA3
:10371000800003EB0010B0FBF1F0216800F00F0017
:103720002844886070BD000000380140FEE70907AA
:10373000090E002804DB00F1E02080F80014704737
:1037400000F00F0000F1E02080F8141D70472DE913
:10375000F0410025491E904607468EB216E0701BC8
:1037600000EBD07005EB600084B2414657F82400AE
:1037700000F060FF02D2601E86B207E057F8240016
:10378000414600F057FE03D2601C85B2B542E6D92F
:103790002046BDE8F081FEF74DFBFFF70BFEFFF77B
:1037A000F7FBFFF7C3FBFFF7F1FCFFF789FCFFF71F
:1037B00021FDFFF76DFDFFF763FCFCF7DFFDFCF774
:1037C000D1FFFDF73BF8FDF7B5F9FCF70FFEFCF76D
:1037D000E3FDFDF763F8FCF747FEFDF7CFF9F6E7E9
:1037E000C160704770B5002580E82E000446FEF7E2
:1037F00013F8C4E904050348A561C4E90750024869
:10380000606270BD9EC97F7F9EC97FFFC0E90821AD
:10381000704710B50446FDF7FFFF01460020C4E9DC
:103820000410A061E06110BD10B510F1FF4F03D38B
:103830000D4C80F0004001E04FF07E5402464FF402
:1038400080610A48FFF783FF00F0E0FD214600F0A9
:1038500025FE00F0DDFB064A064B00F0F1F9BDE85D
:10386000104000F0E5B80000000080BFDC58000800
:10387000182D4454FB21593F2DE9F041164F0446C1
:103880000D4611F0FF4F12D0204600F061FCFFF70B
:10389000CBFFBD420ED3114D114EB4F5000F0DDB21
:1038A00000F0B6FB2A46334600F0F4F80EE0BC42C6
:1038B00002D20C48BDE8F0810B48FBE7BC4209D3BB
:1038C00000F0A6FB2A46334600F0B8FABDE8F04106
:1038D00000F0AEB80548EDE700008080182D445494
:1038E000FB210940DB0FC93FDB0FC9BFDB0F49C01C
:1038F00010B520F0004000F08BFB1D4A1D4B00F07E
:103900009FF900221C4B00F0C5F800F03BFF4FF47C
:103910008062801841F10001020B1203801A61EBF2
:1039200001014FF48063154AC31A71F1000302D2FA
:1039300052F8200010BD4FF40063C31A71F1000368
:1039400004D240F2FF71D0EB0100F1E74FF4406385
:10395000C31A71F1000102D20949401803E040F690
:10396000FF71D0EB010052F8200080F0004010BD44
:1039700083C8C96D305F84400000E03FDC48000828
:1039800000F8FFFF10B510F1FF4F03D3224C80F079
:10399000004001E04FF07E5400F03AFB1F4A204BFC
:1039A00000F04EF900221F4B00F074F800F01AF9F5
:1039B000010B0903411A002262EB02024FF48060FE
:1039C000194B081A72F1000002D253F821100BE0D3
:1039D0004FF40060081A72F1000007D240F2FF7045
:1039E000D1EB000053F82010204610E04FF4406067
:1039F000081A72F1000084F0004002D20B4A8918C4
:103A000003E040F6FF72D1EB020153F82110BDE84C
:103A1000104000F043BD0000000080BF83C8C96DA6
:103A2000305F84400000E03FDC48000800F8FFFF02
:103A300021F00042A2F16052B2F5801F01F0004374
:103A400028BFD2F17F6C0BD95FEA001C43EAC202A7
:103A500042EB507018BF704728BF20F0010070473C
:103A6000B2F5801FBCBF184670474FEA410C1CF5E9
:103A7000001F02D2084600F0D8BD70B500F08AF9E8
:103A800000000089FFF7F6BF4FF00040A0F580006E
:103A90007047000010B591EA030F48BF83F0004360
:103AA00000F1D481841A71EB030C05D2121943EB97
:103AB0000C03001B61EB0C01DFF824E14FEA115409
:103AC000A4EB135C1EEA430F18BF9EEA445F73D059
:103AD00023EA0E03DCF1200E21EA045143F48013A3
:103AE00032D322FA0CFE10EB0E0023FA0CFE41EB4F
:103AF0000E01CCF1200E03FA0EFE10EB0E0051F178
:103B00000001B1F5801FCCF1200E32D201EB04513F
:103B100012FA0EF2BDE8104058BF7047401C38BF83
:103B20005FEA420218BF7047002814BF20F001006E
:103B300041F100014FEA410313F5001F38BF704700
:103B4000A1F1C04100F074B9012A43EB0302ACF1CA
:103B5000200CDCF11F0E32BF4FF0000E23FA0CF3E5
:103B600010EB030041EB0451B4EB115FD0D0A1EB9B
:103B7000045101F5801149085FEA300001EB04515E
:103B80000ED350F1000038BF12FA0EFE08D1BDE886
:103B90001040C9E7401C38BF5FEA4202CAD1C3E700
:103BA000BDE810404FEA410313F5001F38BF7047CE
:103BB000A1F1C04100F03CB99EEA445F08D011EA8F
:103BC0005E0FBDE8104004BF01F0004100207047C7
:103BD000BDE8104070B500F0DDF800BF64FBBE3EEC
:103BE0000000E0FF4FEA1153A3F58063D3F11E03F9
:103BF000A8BFD3F1200C08DB4FF0004242EAC122FB
:103C000052EA505232FA03F0704709420BD4102B9B
:103C1000C4BF0020704703F5787CBCF1FF3F05D09E
:103C20004FF0FF3070474FF00000704770B500F064
:103C3000B1F800BF4992248000207047F0E70000EF
:103C4000DFF848C170B51CEA111E1EBF1CEA13152F
:103C50009EEA0C0F95EA0C0F00F06F8081EA0304D6
:103C600023EA4C134EEAD47E21EA4C1141F4801130
:103C700043F48013AE44A1FB024CA0FB0365AEF1FC
:103C80007F7E361955EB0C05A1FB034C4CF100036C
:103C9000A0FB021C16EB0C06654153F10003094220
:103CA00018BF46F0010613F4007F0BD14FEA033131
:103CB0004FEA0530340341EA155140EA16506FF0DF
:103CC00003020AE04FEAC3214FEAC520F40241EAA9
:103CD000555140EA56506FF0020202EB2E4201EBC2
:103CE000025585EACE710AD05FEA440C18BF24F071
:103CF000004450F1000041F1000120EAD47040F28C
:103D0000FE7C624500D270BDA84214BF4FF08044D3
:103D10004FF04044002E08BF0024BEF1806FA8BFC2
:103D2000A1F1C041BDE8704080F282804FF00000F8
:103D300001F1C04101F0004170479EEA0C0F0CEA0E
:103D4000131518BF95EA0C0F06D04FF0000081EA5A
:103D5000030E0EF0004170BD00F01CF88900013E1A
:103D600000F007B800F009B84FEA430C5FEA5C5C6A
:103D700008D081EA030100F05BB84FEA410C5FEA2A
:103D80005C5CF6D14FF00000014970470000FF076E
:103D90000000F87F0EF1020E2EF0030E5EF8046BA9
:103DA000364205D4012A43EB030515F5001F12D84E
:103DB000012841EB010C1CF5001F0CD80ED14FEA75
:103DC000D17C15F5001F0CEB4C0C0CF1020C08BF5C
:103DD0004CEBD37C04E04FF0080C01E04FEAD37CBD
:103DE0000CEB4C0526FA05F606F00706B6F1040CB6
:103DF00006D20EEB860CBDE870404CF0010C60471B
:103E0000DFE80CF0090B02024FF000414FF0000018
:103E1000A1F5002170BD19461046012851EB01049F
:103E200018BFD4F5001484BF002001F0004170BD1C
:103E30000808A0F500114FEA3101704710B591EA6A
:103E4000030F48BF83F000433FF52CAE841A71EB9B
:103E5000030C07D212198CF0004C43EB0C03001B2F
:103E600061EB0C01DFF8A4E14FEA1154A4EB135C01
:103E70001EEA430F18BF9EEA445F00F0B08023EAB9
:103E80006E03524221EA0451C3EB6E0338BF5B1E3E
:103E9000DCF1200E25D322FA0CFE10EB0E0043FAC3
:103EA0000CFE41EB0E01CCF1200E03FA0EFE10EBDE
:103EB0000E0051F10001CCF1200E29D412FA0EF2BD
:103EC00001EB0451BDE8104058BF7047401C1CBFB7
:103ED000B2F1004F704700280CBF491C20F00100D0
:103EE000704712EB020E43EB030218BF4FF0010EB6
:103EF0004EEA4202ACF1200CDCF11E0E54D943FA1A
:103F00000CFE10EB0E0051F1FF31CCF11E0ED5D599
:103F10000EF1010E12FA0EFE404141EB010101EBE0
:103F2000445C5FEA5C5C10D910EBDE7001EB04517D
:103F300038BFBEF1004FBDE8104018BF70470028E1
:103F40000CBF491C20F00100704730D24FEAD42C3E
:103F500011F5001124F400641BD0B1FA81F20B3A80
:103F6000A41AA41ED2F12003914030FA03F319439E
:103F7000904001EBCC71002C01EB0451BDE81040E6
:103F8000A8BF704701F1C0414FF0000001F00041AF
:103F90007047B0FA80F310FA03F100D110BDE41AB3
:103FA000173C4805C90AE4E701EB045110BD49106C
:103FB00001EB0451BDE810404FEA300002E04FF041
:103FC000000170474A0008BF0042F8D0B2F5001F58
:103FD00028BF704701F000414FF0000070479EEA93
:103FE000445F07D011EA5E0FBDE8104004BF002116
:103FF00000207047BDE8104070B5FFF7CBFE00BF52
:1040000040DFF63E83F00041104670470000E0FFBD
:1040100043004FEAD30C4FEA3C0C43401FBF40071C
:104020000CF1605113F0FE4F70471CF0006F03D18C
:1040300000200CF0004170470CF0004343EA507040
:1040400010B540EACC0000F0AAFA00BF00000092D0
:104050004FEA0001FFF7ECBE4FF000414FF00000C7
:10406000A1F500217047000090EA010F48BF81F0E0
:10407000004100F11883421A3CBF801A89184FEAA8
:10408000D0524FF07F4C1CEA410FA2EBD15318BF26
:104090009CEA026F00F03B804FF0004C4CEA00209D
:1040A0004CEA012121FA03FC10EB0C0C1ED202F1A8
:1040B000FF325FEA1C2040EBC25038BF70471CF053
:1040C0007F0F4FEA400C18BFBCF17F4F38BF7047DD
:1040D000C3F12003994008BF20F00100BCF17F4FDD
:1040E00038BF7047A0F1C04000F09FBA4FEA3C00D3
:1040F000000A40EBC25028BF1CF0FF0F4FEA400CF3
:10410000E6D018BFBCF17F4F38BF7047EAE79CEAA2
:10411000026F05D010EA5C0F08BF00F00040704746
:1041200010B500F03CFA00BF64FBBE3E014800F051
:1041300065BB00BF0000C07F401058BFC0F14040C9
:10414000491058BFC1F140418142EFF300807047F0
:104150004FF47F0C1CEAD0121EBF1CEAD11392EA66
:104160000C0F93EA0C0F00F0858090EA010F48BF16
:1041700042F4807240F4000C41F400002CF07F41C6
:1041800020F07F4000B58142A2EB03020FF2081C31
:10419000ACEB504EC0F100009EF800E04FEA4E0E2E
:1041A00000FB0EFC38BF49004FEA2C1C02F5FA0256
:1041B0000CFB0EF34FEACE1E4FEA112C4FEAC12141
:1041C0000EEB635E42EB22420EFB0CFC4FEA1C53EB
:1041D00000FB03114FEA112C4FEA01310EFB0CFCDE
:1041E0004FEADC4C00FB0C11C14228BF09184CEB14
:1041F00003335DF804EB10EB410143EBC250B2F521
:104200007C0F38BF704729D512F0F00F1CBF00F1AA
:10421000C04000F00040704700818283848586871B
:1042200088898B8C8D8E8F919293959697999A9C75
:104230009D9FA0A2A3A5A7A8AAACAEB0B2B3B5B7E4
:10424000B9BCBEC0C2C5C7C9CCCED1D4D7D9DCDFBA
:10425000E2E6E9ECF0F3F7FAFE0000004FEA400C6A
:104260000CF1807CBCF17E4F28BF7047B0F1C0409C
:1042700000F0DBB990EA010F0CEAD11348BF42F419
:104280008072624538BF634507D213F47F0F16D0A2
:1042900080EA010000F00040704710B500F07FF99F
:1042A000097EFC3E00F005B880EA010000F0004005
:1042B000704780EA010000F0004000F0B6B912F447
:1042C0007F0F04BF0248704780EA010000F0ADB9DB
:1042D0000000C07F50EA010C00F113801CF5000FB4
:1042E00058BFBCF5000F01D48842704707D710F5BE
:1042F000000F58BF11F5000F15D48842704789424E
:1043000070471CF5000F04D5BCF5000FF7D58142AE
:1043100070474FF0807C1CEB400F38BF1CEB410F07
:1043200001D28142704710B500F039F9922449005A
:104330004FF000504FF08051FFF7FEBEC10DD1F19C
:104340009E0206DB4FEA002343F0004323FA02F00B
:104350007047004207D54FEA4001B1F1FE4F02D24B
:104360004FF00000704710B500F019F94992248011
:10437000002070476FEA20007047000010F00041F5
:1043800048BF4042B0FA80F310FA03F2C3F19D0334
:104390000BD051EAC35101EB1220530638BF7047CE
:1043A00000F1010008BF20F0010070474FF07E527D
:1043B00009E011F0004204D54042C1F1000138BFCC
:1043C000491E42F07E520B0002F1706212BF2023A0
:1043D0005FEA00017047B1FA81FCA3EB0C0301FA1C
:1043E0000CF120FA03FC02EBC352C3F1200341EAB3
:1043F0000C0110FA03FC5CEA416C42EB112018BF7F
:104400005FF0806C28BF20F001007047B0FA80F3A5
:1044100010FA03F2C3F19D030AD0D90501EB122073
:10442000530638BF704700F1010008BF20F00100BB
:104430007047000050EA010C00F113801CF5000FDA
:1044400058BFBCF5000F01D48842704707D710F55C
:10445000000F58BF11F5000F15D4884270478942EC
:1044600070471CF5000F04D5BCF5000FF7D581424D
:1044700070474FF0807C1CEB400F38BF1CEB410FA6
:1044800001D28142704710B500F089F892244900AA
:104490004FF000504FF08051FFF74EBE4FF47F0CAD
:1044A0001CEAD0121EBF1CEAD11392EA0C0F93EA49
:1044B0000C0F00F0478090EA010F48BF42F4807271
:1044C0004FF0004C4CEA00204CEA012102EB0302C1
:1044D000A0FB0113A2F50002002918BF43F001035D
:1044E0005B0028BF4FEA330342EB22425FEA132C02
:1044F0004CEBC2502EBFBCEB436FB2F57C0F704744
:104500004FEA036CBCF1004F08BF20F00100B2F588
:104510007C0F38BF70470BD582F0FF0212F5803F49
:10452000C8BF704700F1C040D8BF00F000407047DE
:1045300000F5000C5FEA4C0C48BF7047B0F1C0407A
:1045400000F073B890EA010F0CEAD11348BF42F4AF
:104550008072624538BF634504D280EA010000F0F2
:104560000040704710B500F01AF800BF8900013E06
:1045700000F007B800F009B85FEA410C5FEA1C6C74
:1045800008D080EA010000F050B85FEA400C5FEA12
:104590001C6CF6D14FF00040A0F5800070470EF182
:1045A000020E2EF0030E5EF8044B244204D44FEAB0
:1045B0004102B2F17F4F11D84FEA4003B3F17F4F70
:1045C0000CD80ED14FEAD07CB2F17F4F0CEB4C0CE3
:1045D0000CF1020C08BF4CEBD17C04E04FF0080C4E
:1045E00001E04FEAD17C0CEB4C0324FA03F404F015
:1045F0000704B4F1040C06D20EEB840CBDE81040A5
:104600004CF0010C6047DFE80CF0070802024FF0A5
:104610000040A0F5800010BD0846420018BFD2F14E
:10462000807288BF00F0004010BDFF2141EAD050E9
:10463000C005704751EA000C00F113801CF5000F13
:1046400058BFBCF5000F01D48142704707D711F560
:10465000000F58BF10F5000F15D4814270478942F2
:1046600070471CF5000F04D5BCF5000FF7D5884244
:1046700070474FF0807C1CEB410F38BF1CEB400FA4
:1046800001D28842704780EA010081EA000180EA95
:104690000100FFF7F8BE000090EA010F48BF81F06B
:1046A00000413FF5E8AC421A04D882F00042A0EB8A
:1046B000020011444FEAD0524FF07F4C1CEA410FE8
:1046C000A2EBD15318BF9CEA026F4AD04FF0004CC6
:1046D0004CEA00204CEA012121FA03FCB0EB0C0C5F
:1046E0000FD412F0FE0F36D05FEA4C001DD5001239
:1046F00040EBC25038BF70471CF03F0F18BF7047E7
:104700000BE0A2F101025FEA1C2040EBC25038BF6F
:1047100070471CF07F0F18BF7047C3F1200399400A
:1047200014BF401E20F00100704780084FEA12239A
:1047300008BF7047B0FA80FCA2EB0C02CCF1280C49
:1047400060FA0CF093EA122F04BF00EBC2507047DE
:104750004FEAC3707047130A5FEADC1008BF704766
:10476000F6E79CEA026F04D010EA5C0F08BF002055
:10477000704710B5FFF713FF40DFF63E81F00040B1
:10478000704700004FEAC1230A1543EA50534FEA2D
:10479000C02C18BF43F000431BD4A2F24E02D2F546
:1047A0007C72C0F22080502AA8BF502223FA02F166
:1047B0002CFA02F060B4D2F1200284BF03FA02F5B1
:1047C0002843C2F100029CBF23FA02F5284360BCD3
:1047D000704701F1804212F5801F04DA4FF00000AB
:1047E0004FF00001704770B5FFF7D4FA499224806A
:1047F000002001E06FEAE170014670470CF00F0302
:10480000092B08BF082000F051800A2B0BD0082B81
:1048100018BF704708BF1CF0400F0AD04FF00000CF
:104820004FF0000170471CF0400F18BF4FF00040E0
:1048300070471CF0100F08D020F0704300F07F424A
:1048400042EAD3014FEA4370704700F0604021F024
:104850007F4242EA000201F07F4040EA72707047F6
:104860004FF0FF0212EAD0521CBF92F0FF038B42BE
:10487000C2BFD14200EBC1507047002A0AD0002BC2
:104880000BD0002900F00040A4BF40F0FE4040F4EF
:104890000000704700F00040704743024FF00B0CDF
:1048A00018BF4CF0806C7FF441AC70471CF4801F43
:1048B00011D01CF4E02F03D06FEACC3149007047CF
:1048C0004FF04050EFF3008222F0704242EA0002C3
:1048D00082F3008870474FF000007047000000002E
:1048E0008010C93A8010493B60CC963B8010C93B90
:1048F000A054FB3B60CC163C70EE2F3C8010493C32
:104900005E2E623C6E507B3C3F398A3C47CA963CE7
:104910003659A33C3EEAAF3C467BBC3C350AC93C19
:104920003D9BD53C2C2AE23C34BBEE3C234AFB3C6D
:1049300089EC033D01340A3D787B103DF0C2163D01
:10494000670A1D3DDF51233D5699293DC2DF2F3DAA
:104950003927363DA46D3C3D0FB4423D87FB483DB1
:10496000F2414F3D5D88553DC8CE5B3D2714623D09
:10497000925A683DF19F6E3D5CE6743DBB2B7B3DDA
:104980008DB8803D3CDB833D65FD863D14208A3D2E
:104990003E428D3DED64903D1687933D3FA9963D87
:1049A000E2CA993D0BED9C3DAE0EA03D5130A33DBA
:1049B000F451A63D9773A93D3A95AC3D56B6AF3D2F
:1049C000F9D7B23D16F9B53DAC19B93DC93ABC3D70
:1049D000605BBF3DF67BC23D8D9CC53D23BDC83DA0
:1049E000BADDCB3DCAFDCE3DDA1DD23DEA3DD53D17
:1049F000745DD83DFE7CDB3D889CDE3D12BCE13D14
:104A00009CDBE43DA0FAE73DA419EB3DA838EE3D60
:104A10002657F13DA375F43D2194F73D9EB2FA3D32
:104A200096D0FD3D4777003E4206023EFB94033E92
:104A3000B323053E6CB2063E2541083E9ACF093E9F
:104A40000F5E0B3E42EC0C3E747A0E3EA708103E01
:104A5000D996113EC824133EB7B2143E6440163EA8
:104A600053CE173EFF5B193E68E91A3ED1761C3ED5
:104A70003A041E3E60911F3E861E213EACAB223E94
:104A80008F38243E72C5253E5452273EF4DE283E20
:104A9000946B2A3EF0F72B3E4D842D3EAA102F3EFC
:104AA000C39C303EDD28323EB3B4333E8940353EB0
:104AB00060CC363EF357383E86E3393ED66E3B3EF9
:104AC00027FA3C3E34853E3E4110403E4E9B413EDF
:104AD0001826433E9FB0443E693B463EACC5473E28
:104AE0003350493E34DA4A3E77644C3E78EE4D3ED0
:104AF00036784F3EF301513E6E8B523EE814543EE1
:104B0000629E553E9A27573E8EB0583E82395A3E95
:104B100076C25B3E274B5D3E95D35E3E035C603EB6
:104B200071E4613E9C6C633E84F4643E6C7C663E42
:104B30001004683EB58B693E16136B3E789A6C3E46
:104B400096216E3EB5A86F3E902F713E6BB6723EB9
:104B5000043D743E59C3753EAE49773EC0CF783EA2
:104B6000D2557A3EA1DB7B3E70617D3EFBE67E3E08
:104B70002236803EC6F8803E49BB813ECC7D823ED7
:104B80002D40833E6D02843EACC4843ECB86853E80
:104B9000E948863EE50A873EC0CC873E9B8E883E2C
:104BA0005550893EED118A3E84D38A3EFB948B3E5C
:104BB00071568C3EC6178D3EF9D88D3E2C9A8E3E8E
:104BC0003E5B8F3E2E1C903E1EDD903EED9D913E45
:104BD0009A5E923E251F933EB1DF933E3CA0943EE9
:104BE0008560953ECD20963EF4E0963E1BA1973E13
:104BF0002061983E0421993EC6E0993E88A09A3EE5
:104C000028609B3EA71F9C3E26DF9C3E849E9D3EC7
:104C1000C05D9E3EDA1C9F3EF5DB9F3EED9AA03EB6
:104C2000C559A13E7A18A23E30D7A23EC495A33EF4
:104C30003754A43EA912A53ED9D0A53E088FA63E62
:104C4000164DA73E240BA83EEFC8A83EBA86A93E43
:104C50006344AA3E0C02AB3E72BFAB3ED97CAC3E75
:104C60001D3AAD3E40F7AD3E42B4AE3E4371AF3E5D
:104C7000022EB03EC0EAB03E5DA7B13EFA63B23E3E
:104C80005320B33EADDCB33EE598B43EFC54B53E94
:104C9000F110B63EC4CCB63E7688B73E2844B83E46
:104CA000B9FFB83E28BBB93E7576BA3EA131BB3ECE
:104CB000ABECBB3EB5A7BC3E7C62BD3E431DBE3ED9
:104CC000E9D7BE3E6C92BF3ECF4CC03E1007C13EFE
:104CD00051C1C13E4E7BC23E4C35C33E07EFC33E81
:104CE000C1A8C43E5A62C53ED21BC63E28D5C63EA8
:104CF0005C8EC73E6F47C83E8200C93E52B9C93E6E
:104D00000072CA3EAE2ACB3E3BE3CB3E849BCC3EF8
:104D1000CE53CD3EF60BCE3EDBC3CE3EC07BCF3E68
:104D20008333D03E25EBD03EA5A2D13E045AD23EDD
:104D30004111D33E5CC8D33E567FD43E5036D53E5B
:104D400007EDD53E9CA3D63E105AD73E6210D83E02
:104D500093C6D83EC47CD93EB132DA3E7DE8DA3E15
:104D6000289EDB3EB153DC3E3909DD3E7FBEDD3E91
:104D7000A373DE3EA628DF3E87DDDF3E4792E03E9E
:104D8000E546E13E61FBE13EBCAFE23EF563E33E5A
:104D90000D18E43E03CCE43ED87FE53E6A33E63EA0
:104DA000FBE6E63E6B9AE73E984DE83EC500E93EDD
:104DB000AFB3E93E7766EA3E3F19EB3EC5CBEB3E2B
:104DC000287EEC3E6A30ED3E8BE2ED3E6894EE3E8E
:104DD0004546EF3E01F8EF3E7AA9F03EF35AF13E28
:104DE000280CF23E3CBDF23E2F6EF33E001FF43E17
:104DF000AFCFF43E3D80F53E8830F63ED2E0F63E41
:104E0000DA90F73EC040F83E84F0F83E27A0F93E25
:104E1000A94FFA3EE7FEFA3E25AEFB3E205DFC3E82
:104E2000FA0BFD3EB2BAFD3E4969FE3EBE17FF3E9B
:104E3000EFC5FF3E003A003FF790003FDEE7003F3E
:104E4000B43E013F7995013F1CEC013FAF42023F68
:104E50003199023FA2EF023FF145033F419C033FDE
:104E60006FF2033F8C48043F999E043F84F4043F53
:104E70005E4A053F27A0053FE0F5053F884B063F0A
:104E80000EA1063F83F6063FE84B073F3CA1073FD4
:104E90006FF6073F904B083FA1A0083FA1F5083FE0
:104EA000804A093F4D9F093F0AF4093FA6480A3F3F
:104EB000419D0A3FBBF10A3F24460B3F6B9A0B3FD3
:104EC000A2EE0B3FC8420C3FDD960C3FD1EA0C3FEF
:104ED000B43E0D3F86920D3F36E60D3FD6390E3F6C
:104EE000658D0E3FE3E00E3F40340F3F8B870F3F51
:104EF000B6DA0F3FCF2D103FD880103FD0D3103FF0
:104F0000A626113F6C79113F21CC113FB41E123FF0
:104F10003771123F98C3123FE815133F2768133FBC
:104F200056BA133F630C143F5F5E143F3AB0143F10
:104F30000402153FBD53153F55A5153FDCF6153F3F
:104F40004148163FA699163FD9EA163F0C3C173F39
:104F50001E8D173F0DDE173FEC2E183FBB7F183F0D
:104F600078D0183F1421193F8F71193FF8C1193FAC
:104F700051121A3F99621A3FC0B21A3FC5021B3F35
:104F8000B9521B3F9CA21B3F5EF21B3F0F421C3FCE
:104F90009F911C3F1EE11C3F8C301D3FD87F1D3F61
:104FA00003CF1D3F1D1E1E3F266D1E3F0EBC1E3F24
:104FB000E50A1F3F9B591F3F3FA81F3FC2F61F3FF7
:104FC0003545203F9693203FD6E1203FF52F213FE6
:104FD000027E213FFFCB213FDB19223F9467223F16
:104FE0003DB5223FD602233F4C50233FA19D233F96
:104FF000E6EA233F1938243F2B85243F2DD2243F56
:105000000C1F253FCA6B253F78B8253F0305263F77
:105010007E51263FE99D263F31EA263F5936273FFC
:105020006F82273F64CE273F481A283F0A66283FF1
:10503000ABB1283F3BFD283FBB48293F1894293F8F
:1050400055DF293F802A2A3F8A752A3F83C02A3F9D
:105050005B0B2B3F21562B3FC7A02B3F4AEB2B3F2F
:10506000BD352C3F0F802C3F4FCA2C3F6E142D3F77
:105070006C5E2D3F58A82D3F24F22D3FDE3B2E3F86
:1050800077852E3FFFCE2E3F55182F3FAA612F3F29
:10509000CEAA2F3FE0F32F3FE23C303FC285303FA6
:1050A00081CE303F1E17313FAB5F313F15A8313FF6
:1050B0006FF0313FA838323FD080323FC5C8323F11
:1050C000AA10333F7D58333F30A0333FC0E7333F12
:1050D000302F343F8E76343FCBBD343FF704353F1D
:1050E000014C353FEA92353FB2D9353F6820363F13
:1050F000FD66363F82AD363FE4F3363F263A373F12
:105100004580373F54C6373F410C383F1E52383F29
:10511000C897383F61DD383FD922393F4068393F71
:1051200086AD393FAAF2393FBD373A3F9E7C3A3FC0
:105130006EC13A3F2D063B3FBA4A3B3F368F3B3F5D
:1051400091D33B3FDB173C3F035C3C3F0AA03C3F15
:10515000EFE33C3FB3273D3F666B3D3FF7AE3D3F3E
:1051600067F23D3FC6353E3F03793E3F1FBC3E3FA1
:1051700019FF3E3F03423F3FBA843F3F60C73F3F76
:10518000F609403F594C403FAC8E403FDDD0403F98
:10519000EC12413FDA54413FB796413F73D8413F4B
:1051A0000D1A423F855B423FED9C423F22DE423F6B
:1051B000471F433F4A60433F3CA1433FFCE1433F1D
:1051C000AB22443F3963443FA5A3443FEFE3443F50
:1051D0002924453F4164453F27A4453FFCE3453F23
:1051E000C023463F5263463FD3A2463F22E2463F9A
:1051F0006021473F8D60473F889F473F61DE473FC3
:105200002A1D483FD15B483F569A483FBAD8483F8D
:10521000FD16493F1D55493F2D93493F0BD1493F4D
:10522000D80E4A3F834C4A3F0D8A4A3F86C74A3FC1
:10523000CD044B3FF2414B3F067F4B3FF9BB4B3F09
:10524000CBF84B3F7A354C3F08724C3F75AE4C3F24
:10525000D1EA4C3FFA264D3F13634D3F0A9F4D3F25
:10526000CFDA4D3F83164E3F15524E3F978D4E3F3E
:10527000E7C84E3F14044F3F313F4F3F1C7A4F3F2A
:10528000F6B44F3FAEEF4F3F352A503FAA64503F30
:10529000FE9E503F30D9503F5113513F404D513F3A
:1052A0000E87513FCAC0513F55FA513FCE33523F4E
:1052B000166D523F4CA6523F61DF523F4418533F98
:1052C0001651533FC689533F55C2533FC2FA533F0D
:1052D0000D33543F386B543F40A3543F38DB543FA9
:1052E000FD12553FA14A553F3482553F95B9553F70
:1052F000D4F0553F0228563FFF5E563FEA95563F91
:10530000A3CC563F4B03573FC139573F2670573FF9
:105310006AA6573F7BDC573F7B12583F5A48583F9D
:10532000077E583FA2B3583F1DE9583F641E593FBE
:105330009C53593FB188593F94BD593F67F2593F3B
:1053400018275A3FA75B5A3F04905A3F50C45A3F10
:105350007BF85A3F732C5B3F5B605B3F21945B3F64
:10536000B4C75B3F37FB5B3F882E5C3FC8615C3F47
:10537000D5945C3FD2C75C3F9CFA5C3F562D5D3FA5
:10538000DD5F5D3F53925D3F97C45D3FBAF65D3F81
:10539000BB285E3FAB5A5E3F698C5E3F06BE5E3FF8
:1053A00080EF5E3FDA205F3F11525F3F27835F3F10
:1053B0001CB45F3FEFE45F3F9015603F2046603FC5
:1053C0008E76603FCAA6603FF5D6603FEE06613F2D
:1053D000D636613F8C66613F2096613F93C5613F41
:1053E000E4F4613F1424623F2253623F0E82623F25
:1053F000D9B0623F83DF623FFA0D633F603C633F99
:10540000946A633FA698633FA8C6633F77F4633FFF
:105410002522643FB14F643F1C7D643F54AA643F22
:105420007BD7643F7104653F5531653F075E653F3B
:10543000988A653F17B7653F65E3653F800F663F14
:105440008A3B663F7367663F2993663FCFBE663FE0
:1054500042EA663F9415673FC440673FD36B673F9E
:10546000C096673F8BC1673F25EC673FAD16683F2D
:105470000341683F386B683F4A95683F3CBF683FCF
:105480000CE9683FA912693F363C693F9065693F66
:10549000C98E693FE1B7693FD6E0693FAB096A3F12
:1054A0004D326A3FDE5A6A3F3C836A3F7AAB6A3FBD
:1054B00095D36A3F8FFB6A3F57236B3F0E4B6B3F81
:1054C00093726B3FF6996B3F37C16B3F57E86B3F69
:1054D000560F6C3F22366C3FCD5C6C3F66836C3F51
:1054E000BDA96C3F03D06C3F27F66C3F191C6D3F84
:1054F000EA416D3FA9676D3F268D6D3F92B26D3FCA
:10550000DCD76D3FF4FC6D3FEA216E3FBF466E3F36
:10551000726B6E3FF38F6E3F63B46E3FA1D86E3FE8
:10552000BDFC6E3FB8206F3F80446F3F38686F3FCF
:10553000BD8B6F3F21AF6F3F52D26F3F73F56F3F0F
:105540006118703F3F3B703FD95D703F6380703F93
:10555000CBA2703F00C5703F14E7703F0709713F51
:10556000D82A713F774C713FF46D713F508F713F76
:105570008AB0713FA2D1713F88F2713F4D13723FE3
:10558000F033723F7154723FC174723FFF94723FA7
:105590000BB5723FE5D4723FAEF4723F4414733FD3
:1055A000B933733F0D53733F3F72733F3F91733F66
:1055B0001DB0733FD9CE733F74ED733FDD0B743F65
:1055C000242A743F4948743F4D66743F1F84743FDA
:1055D000CFA1743F5DBF743FCADC743F05FA743FCE
:1055E0002F17753F1634753FEC50753F8F6D753F23
:1055F000228A753F83A6753FB1C2753FCEDE753FE7
:10560000B9FA753F7216763F1A32763F904D763F63
:10561000E468763F1684763F279F763F06BA763F4A
:10562000C3D4763F5FEF763FC809773F1024773FBA
:10563000363E773F3A58773F0D72773FBD8B773FC5
:105640004CA5773FBABE773FF5D7773F0FF1773F4D
:10565000070A783FCD22783F713B783FF453783F7B
:10566000556C783F8484783F919C783F7CB4783F38
:1056700036CC783FCEE3783F44FB783F9912793FB0
:10568000BB29793FBC40793F9B57793F486E793FB2
:10569000E484793F3D9B793F85B1793F9BC7793F52
:1056A00090DD793F62F3793F03097A3F821E7A3FAA
:1056B000DF337A3F0A497A3F245E7A3FFC727A3FB1
:1056C000C2877A3F569C7A3FC9B07A3F19C57A3F64
:1056D00038D97A3F35ED7A3F11017B3FBA147B3FD1
:1056E00041287B3FA73B7B3FEC4E7B3FFE617B3FEE
:1056F000EF747B3FAD877B3F5B9A7B3FC5AC7B3FC5
:105700001FBF7B3F46D17B3F4CE37B3F30F57B3F68
:10571000E2067C3F83187C3FE1297C3F2E3B7C3FA7
:10572000494C7C3F425D7C3F096E7C3FAE7E7C3FB6
:10573000328F7C3F849F7C3FC4AF7C3FC2BF7C3FA5
:10574000AFCF7C3F6ADF7C3F03EF7C3F7AFE7C3F3C
:10575000BF0D7D3FE31C7D3FD42B7D3FB43A7D3FA1
:1057600052497D3FDE577D3F38667D3F71747D3FF6
:1057700088827D3F6D907D3F309E7D3FD2AB7D3FE7
:1057800041B97D3F8FC67D3FAAD37D3FB5E07D3FC8
:105790008DED7D3F33FA7D3FC8067E3F2B137E3F64
:1057A0005C1F7E3F6B2B7E3F58377E3F24437E3FFE
:1057B000BE4E7E3F365A7E3F8C657E3FB0707E3F48
:1057C000B37B7E3F83867E3F43917E3FD09B7E3F6F
:1057D0002BA67E3F64B07E3F7CBA7E3F72C47E3F84
:1057E00036CE7E3FD8D77E3F48E17E3F96EA7E3F69
:1057F000C3F37E3FCEFC7E3FA7057F3F5E0E7F3F1B
:10580000E3167F3F471F7F3F89277F3F982F7F3FCA
:1058100086377F3F533F7F3FED467F3F664E7F3F5A
:10582000BD557F3FE25C7F3FE5637F3FC66A7F3FB8
:1058300076717F3F03787F3F6F7E7F3FA9847F3FF4
:10584000C28A7F3FB8907F3F7D967F3F209C7F3FFD
:1058500090A17F3FDFA67F3F0CAC7F3F07B17F3F2A
:10586000F2B57F3F99BA7F3F2FBF7F3F93C37F3F02
:10587000C5C77F3FE6CB7F3FD5CF7F3F91D37F3FEB
:105880003DD77F3FB6DA7F3FFDDD7F3F22E17F3F9F
:1058900026E47F3F08E77F3FB8E97F3F46EC7F3F44
:1058A000A2EE7F3FDCF07F3FF5F27F3FEDF47F3FDC
:1058B000B2F67F3F44F87F3FC6F97F3F16FB7F3F3C
:1058C00033FC7F3F3FFD7F3F19FE7F3FC1FE7F3F9F
:1058D00047FF7F3FACFF7F3FEFFF7F3F00000000AF
:1058E0008010C93A8010493B60CC963B8010C93B80
:1058F000A054FB3B60CC163C70EE2F3C8010493C22
:10590000C136623CD1587B3C713D8A3C91D0963C7B
:105910009961A33CBAF4AF3CDB87BC3CFC1AC93CA0
:105920001DAED53C3E41E23C5FD4EE3C7F67FB3C84
:105930005DFE033DED470A3D8A92103D27DD163D91
:10594000C4271D3D6D73233D0ABE293DB309303D7B
:105950005C55363D06A13C3DAFEC423D6539493DC5
:105960001A864F3DD0D2553D861F5C3D486D623D45
:10597000FEB9683DC0076F3D8F56753D51A47B3D14
:1059800090F9803DF720843DE448873DD2708A3D00
:10599000BF988D3DADC0903D21E9933D9411973D59
:1059A0008E3A9A3D88639D3D828CA03D03B6A33D0F
:1059B00083DFA63D0309AA3D0933AD3D105DB03D2F
:1059C0001687B33DA3B1B63DB5DCB93DC807BD3DB3
:1059D000DB32C03D745EC33D0D8AC63DA6B5C93DF0
:1059E000C6E1CC3D6B0ED03D103BD33D3C68D63D6F
:1059F0006895D93D94C2DC3D45F0DF3D7E1EE33D18
:105A0000B64CE63D747BE93D32AAEC3D77D9EF3DDB
:105A1000BC08F33D8638F63D5168F93DA298FC3D3F
:105A200079C9FF3D287D013ED715033E86AE043E71
:105A30007847063EACE0073EE179093E59130B3E3C
:105A400015AD0C3ED0460E3ECEE00F3E0F7B113E14
:105A50005115133ED5AF143E9D4A163E64E5173EE0
:105A60006F80193EBD1B1B3E0BB71C3EDF521E3E16
:105A7000B3EE1F3ECA8A213EE126233E3BC3243EAD
:105A8000D95F263EB9FC273EDD99293E00372B3EE3
:105A9000AAD42C3E54722E3E4110303E2EAE313EE2
:105AA000A14C333E14EB343E0D8A363E0729383E76
:105AB00043C8393EC3673B3E85073D3E48A73E3E4F
:105AC0009147403E1DE8413EA988433E7829453E26
:105AD000CDCA463E226C483EBB0D4A3E96AF4B3E79
